S01D000053656E696F722044657369676E2053656E736F72732E7372656310
S11300000C945A000C9477000C9477000C947700AD
S11300100C9477000C9477000C9477000C94770080
S11300200C9477000C9477000C9477000C94770070
S11300300C9477000C9477000C9477000C94770060
S11300400C9477000C9477000C9477000C94770050
S11300500C9477000C9477000C9477000C94770040
S11300600C9477000C9477000C9477000C94770030
S11300700C9477000C9477000C9477000C94770020
S11300800C9477000C9477000C9477000C94770010
S11300900C9477000C9477000C9477000C94770000
S11300A00C9477000C9477000C9477000C947700F0
S11300B00C94770011241FBECFEFD8E0DEBFCDBF74
S11300C012E0A0E0B1E0E0E9FFE002C005900D928B
S11300D0A63BB107D9F722E0A6EBB2E001C01D921E
S11300E0AC3BB207E1F70E9493000C94C6070C9452
S11300F00000E0ECF0E0908195FFFDCF8093C60016
S113010080E090E008951092C50087E68093C400D3
S1130110E1ECF0E0808188618083E2ECF0E08081B2
S1130120866080830895CF93DF93CDB7DEB7A89719
S11301300FB6F894DEBF0FBECDBF0E94830080E0EF
S113014091E09093B9028093B8020E94CA038EE0B2
S113015091E09F938F930E94B8040E9454030F90E0
S11301600F90892B21F087E191E00E94CE040E9438
S11301708902992324F481E391E00E94CE048CE463
S113018091E00E94CE040BE711E060E472E48FE09A
S113019090E00E945E04CE0101960E94AD02992374
S11301A02CF481E691E00E94CE04EFCF88A58F93D2
S11301B08FA18F938EA18F938DA18F938CA18F93F9
S11301C08BA18F938AA18F9389A18F9388A18F93F9
S11301D08F8D8F938E8D8F938D8D8F938C8D8F9329
S11301E08B8D8F938A8D8F93898D8F93888D8F9329
S11301F08F898F938E898F938D898F938C898F9319
S11302008B898F938A898F9389898F9388898F9318
S11302108F858F938E858F938D858F938C858F9308
S11302208B858F938A858F9389858F9388858F9308
S11302308F818F938E818F938D818F938C818F93F8
S11302408B818F938A818F9389818F931F930F93CF
S11302500E94B8040FB6F894DEBF0FBECDBF95CF91
S1130260FC0120816181862F90E0A0E0B0E0DC01F8
S113027099278827B22B2381822B2281BC01CD01AF
S1130280722B08950E943001089561157105A1F043
S1130290FC01680F791F8FEF21E39191892798E082
S11302A088231CF4880F822701C0880F9150C1F75E
S11302B0E617F70791F708958FEF0895CF93C42FAA
S11302C00E94450191E08C1301C090E0892F819533
S11302D0CF910895EF92FF920F931F93CF93DF93E3
S11302E0EC0178836983222301F1E22E2296042F04
S11302F0152FF12CF8018181888380810E5F1F4FB7
S1130300898362E070E0CE010E9445018A83F39400
S11303102396EF10EFCFEA948E2D90E09C01220FEC
S1130320331F820F931F059602C082E090E0DF9195
S1130330CF911F910F91FF90EF9008956F927F924C
S11303408F929F92AF92BF92CF92DF92EF92FF92E1
S11303500F931F93CF93DF93CDB7DEB7C054D1096A
S11303600FB6F894DEBF0FBECDBFC62ED72E4A01FE
S1130370880C991C840E951EA401BE016F5F7F4FEB
S11303800E94D903082F082E000C110B011511052A
S113039031F48114910491F480E090E04AC01F93F9
S11303A08F9382E292E09F938F930E94B8040F9000
S11303B00F900F900F90802F912F3BC08E010F5FF5
S11303C01F4FEC2CFD2CC12CD12C0F2EFDE36F2ED6
S11303D0F2E07F2EF02D5801F801428162E070E0D6
S11303E0C8010E945E01282F082E000C330B211532
S11303F0310551F03F938F937F926F920E94B8041E
S11304000F900F900F900F90F5018081F70180837A
S1130410F5018181F7018183F3E0CF0ED11C0D5FDB
S11304201F4F82E0E80EF11CC814D904A0F280E04A
S113043090E0C05CDF4F0FB6F894DEBF0FBECDBFB7
S1130440DF91CF911F910F91FF90EF90DF90CF90AC
S1130450BF90AF909F908F907F906F9008951F935F
S1130460CF93DF9300D0CDB7DEB7182F20E040E064
S113047050E0CE0101960E946A0142E050E0BE01C4
S11304806F5F7F4F812F0E942004082E000C990B70
S11304900F900F90DF91CF911F9108951F93CF93E9
S11304A0DF93CDB7DEB7A0970FB6F894DEBF0FBECB
S11304B0CDBF182FCE0101960E946A01AC01BE0186
S11304C06F5F7F4F812F0E942004082E000C990B30
S11304D0A0960FB6F894DEBF0FBECDBFDF91CF91CB
S11304E01F910895CF93DF93EC0163E370ED89E6E8
S11304F00E942F029C01009741F440E150E0BE01AC
S113050089E60E949E011F8E01C0932FDF91CF9137
S113051008950F931F93CF93DF9300D0CDB7DEB729
S113052080E093E09A83898321E030E0AE014F5F5D
S11305305F4F60E170E089E60E944E028C0160E248
S11305407EE480E090E00E945E04C8010F900F906A
S1130550DF91CF911F910F910895EF92FF920F9326
S11305601F93CF93DF93CDB7DEB7A8970FB6F89458
S1130570DEBF0FBECDBF8C0160E073E089E60E9450
S11305802F02009709F06AC044E150E0BE016F5F9A
S11305907F4F89E60E949E017C01009709F05DC0AF
S11305A0CE0101960E944201F80160837183828327
S11305B09383CE0105960E944201F80164837583FA
S11305C086839783CE0109960E944201F8016087D1
S11305D0718782879387CE010D960E944201F801AC
S11305E06487758786879787CE0141960E9442016A
S11305F0F801608B718B828B938BCE0145960E94A0
S11306004201F801648B758B868B978BCE014996DA
S11306100E944201F801608F718F828F938FCE0107
S11306204D960E944201F801648F758F868F978FD3
S1130630CE0181960E944201F80160A371A382A3B6
S113064093A3CE0185960E944201F80164A375A389
S113065086A397A38E2D9F2D01C09F2DA8960FB61C
S1130660F894DEBF0FBECDBFDF91CF911F910F91E4
S1130670FF90EF900895CF93DF9363E071E189E6F3
S11306800E942F0263E071E189E60E942F02EC01CF
S1130690892B31F468E873E180E090E00E945E0405
S11306A0CE01DF91CF910895CF93DF93CDB7DEB71D
S11306B0A0970FB6F894DEBF0FBECDBF0E943B03D8
S11306C0CE0101960E947202A0960FB6F894DEBF86
S11306D00FBECDBFDF91CF91089594EA9093BC00F3
S11306E0ECEBF0E090819923ECF79091B900987FBE
S11306F0983011F09031B9F48093BB0084E8809372
S1130700BC00ECEBF0E080818823ECF78091B90029
S1130710887F883151F0803451F088E592E00E945E
S1130720CE0480E0089581E0089580E0089580E09B
S1130730089584E98093BC00ECEBF0E0808184FDB3
S1130740FDCF08958093BB0084E88093BC00ECEB5C
S1130750F0E080818823ECF79091B900987F81E0E4
S1130760983209F480E0089584EC8093BC00ECEBAB
S1130770F0E080818823ECF78091BB00089584E841
S11307808093BC00ECEBF0E080818823ECF780914F
S1130790BB00089588E48093B800E9EBF0E0808121
S11307A08C7F808387B18F7C87B988B1806388B957
S11307B00895AF92BF92CF92DF92EF92FF920F9380
S11307C01F93CF93DF93B62EA72E7A01880F0E9432
S11307D06D03E114F104D1F00B2D1A2DC0E0D0E02B
S11307E0670181E0C81AD108CC15DD0528F40E9400
S11307F0B403F801808304C00E94BF03F80180831E
S113080021960F5F1F4FEC16FD0671F70E949903A6
S1130810AF92BF928AE792E09F938F930E94B804AD
S11308200F900F900F900F9080E0DF91CF911F9168
S11308300F91FF90EF90DF90CF90BF90AF9008950D
S1130840EF92FF920F931F93CF93DF93D62FC72F6F
S11308507A01880F0E946D03E114F104E9F00D2F71
S11308601C2FC0E0D0E0F80181918F010E94A20307
S1130870882371F0DF93CF9387E892E09F938F935F
S11308800E94B8040F900F900F900F9081E00FC05A
S11308902196EC16FD0639F70E94990386EA92E048
S11308A09F938F930E94B8040F900F9080E0DF9184
S11308B0CF911F910F91FF90EF900895CF92DF9207
S11308C0EF92FF9228EE33E040E050E00E9496045D
S11308D0F62FE72FC62ED72EE82EF92E2115310537
S11308E04105510569F0BA01A901AFE9BFE01197CB
S11308F0F1F700C000004150510961097109A9F7DD
S1130900CD28CE28CF2869F04F2F5E2F682F792F5E
S1130910B5E0BA95F1F70000415051096109710938
S1130920B9F7FF90EF90DF90CF900895A1E21A2ECF
S1130930AA1BBB1BFD010DC0AA1FBB1FEE1FFF1F7F
S1130940A217B307E407F50720F0A21BB30BE40BCF
S1130950F50B661F771F881F991F1A9469F7609516
S11309607095809590959B01AC01BD01CF010895D0
S1130970A0E0B0E0EEEBF4E00C949F07AE014B5F17
S11309805F4FFA0161917191AF018091B80290912A
S1130990B9020E94FE04E2E00C94BB070F931F937C
S11309A0CF93DF93E091B802F091B902238121FF44
S11309B01BC08C01D0E0C0E0F80181918F016091EF
S11309C0B8027091B902DB011896ED91FC91199768
S11309D0882331F00995892B79F3DFEFCFEFECCF42
S11309E08AE00995892B19F08FEF9FEF02C08D2FB4
S11309F09C2FDF91CF911F910F910895ABE0B0E050
S1130A00E4E0F5E00C948F076C017B018A01FC01A2
S1130A1017821682838181FFCCC1CE0101963C01ED
S1130A20F6019381F70193FD859193FF81917F01F5
S1130A30882309F4BAC1853239F493FD859193FF73
S1130A4081917F01853229F4B60190E00E94F50678
S1130A50E7CF912C212C312CFFE1F315D8F08B3208
S1130A6079F038F4803279F08332A1F4232D2061B7
S1130A701DC08D3261F0803369F4232D216016C0CE
S1130A80832D8260382EE32DE4603E2E2AC0F32DA0
S1130A90F8601DC037FC2DC020ED280F2A3040F02F
S1130AA08E32B9F436FC81C1232D2064322E19C054
S1130AB036FE06C08AE0989E200D1124922E11C0A5
S1130AC0EAE02E9E200D1124222EF32DF0623F2EFB
S1130AD008C08C3621F4832D8068382E02C08836F5
S1130AE041F4F70193FD859193FF81917F01811179
S1130AF0B3CF982F9F7D9554933028F40C5F1F4FEC
S1130B009FE399830DC0833631F0833771F08335C9
S1130B1009F059C021C0F801808189830E5F1F4FFD
S1130B2088248394912C530113C02801F2E04F0EC2
S1130B30511CF801A080B18036FE03C0692D70E01D
S1130B4002C06FEF7FEFC5010E94EA064C018201EB
S1130B50F32DFF773F2E16C0280122E0420E511CD0
S1130B60F801A080B18036FE03C0692D70E002C098
S1130B706FEF7FEFC5010E94DF064C01F32DF06893
S1130B803F2E820133FC1BC0822D90E0881699060B
S1130B90B0F4B60180E290E00E94F5062A94F4CF06
S1130BA0F50137FC859137FE81915F01B60190E034
S1130BB00E94F50621102A9421E0821A91088114DA
S1130BC0910471F7E8C0843611F0893641F5F801D3
S1130BD037FE07C060817181828193810C5F1F4F52
S1130BE008C060817181072E000C880B990B0E5F81
S1130BF01F4FF32DFF763F2E97FF09C090958095E8
S1130C00709561957F4F8F4F9F4FF0683F2E2AE07C
S1130C1030E0A3010E943107882E861845C085372D
S1130C2031F4232D2F7EB22E2AE030E025C0932DFF
S1130C30997FB92E8F36C1F018F4883579F0B5C094
S1130C40803719F0883721F0B0C0E92FE061BE2E5B
S1130C50B4FE0DC0FB2DF460BF2E09C034FE0AC0E3
S1130C60292F2660B22E06C028E030E005C020E11E
S1130C7030E002C020E132E0F801B7FE07C0608135
S1130C807181828193810C5F1F4F06C060817181E5
S1130C9080E090E00E5F1F4FA3010E943107882E71
S1130CA08618FB2DFF773F2E36FE0DC0232D2E7F99
S1130CB0A22E891458F434FE0BC032FC09C0832DD3
S1130CC08E7EA82E05C0B82CA32C03C0B82C01C05E
S1130CD0B92CA4FE0FC0FE01E80DF11D8081803304
S1130CE021F49A2D997EA92E09C0A2FE06C0B394C0
S1130CF0B39404C08A2D867809F0B394A3FC11C080
S1130D00A0FE06C0B21488F4280C922C9B180EC0C6
S1130D10B21460F4B60180E290E00E94F506B39448
S1130D20F7CFB21418F42B1802C0982C212CA4FE6F
S1130D3010C0B60180E390E00E94F506A2FE17C041
S1130D40A1FC03C088E790E002C088E590E0B6010A
S1130D500CC08A2D867859F0A1FE02C08BE201C036
S1130D6080E2A7FC8DE2B60190E00E94F5068914AA
S1130D7038F4B60180E390E00E94F5069A94F7CF28
S1130D808A94F301E80DF11D8081B60190E00E9480
S1130D90F5068110F5CF222009F442CEB60180E297
S1130DA090E00E94F5062A94F6CFF6018681978199
S1130DB002C08FEF9FEF2B96E2E10C94AB07FC018E
S1130DC00590615070400110D8F7809590958E0F72
S1130DD09F1F0895FC016150704001900110D8F7E5
S1130DE0809590958E0F9F1F08950F931F93CF9317
S1130DF0DF93FB01238121FD03C08FEF9FEF2CC004
S1130E0022FF16C04681578124813581421753073A
S1130E1044F4A081B1819D012F5F3F4F3183208332
S1130E208C93268137812F5F3F4F3783268314C0ED
S1130E308B01EC01FB010084F185E02D0995892BE0
S1130E40E1F6D80116968D919C9117970196179605
S1130E509C938E931697CE01DF91CF911F910F91A2
S1130E600895FA01AA27283051F1203181F1E8943C
S1130E706F936E7F6E5F7F4F8F4F9F4FAF4FB1E089
S1130E803ED0B4E03CD0670F781F891F9A1FA11D84
S1130E90680F791F8A1F911DA11D6A0F711D811D85
S1130EA0911DA11D20D009F468943F912AE0269F4A
S1130EB011243019305D3193DEF6CF010895462FA9
S1130EC04770405D4193B3E00FD0C9F7F6CF462F8A
S1130ED04F70405D4A3318F0495D31FD40524193F3
S1130EE002D0A9F7EACFB4E0A695979587957795B0
S1130EF06795BA95C9F700976105710508959B0137
S1130F00AC010A2E06945795479537952795BA95BF
S1130F10C9F7620F731F841F951FA01D08952F9298
S1130F203F924F925F926F927F928F929F92AF9275
S1130F30BF92CF92DF92EF92FF920F931F93CF93C2
S1130F40DF93CDB7DEB7CA1BDB0B0FB6F894DEBF59
S1130F500FBECDBF09942A88398848885F846E847F
S1130F607D848C849B84AA84B984C884DF80EE80C9
S1130F70FD800C811B81AA81B981CE0FD11D0FB6D2
S1130F80F894DEBF0FBECDBFED010895F894FFCFF6
S1130F900000000200000000790000000000507210
S1130FA06F62696E6721005350532073656E736FCF
S1130FB0722070726F62696E67206661696C656425
S1130FC0006572726F72207374617274696E672047
S1130FD06D6561737572656D656E74006D656173C1
S1130FE07572656D656E7473207374617274656473
S1130FF0006572726F722072656164696E67206D3C
S11310006561737572656D656E74006D6561737588
S11310107265642076616C7565733A0A0925302E11
S1131020326620706D312E300A0925302E3266204A
S1131030706D322E350A0925302E326620706D34DB
S11310402E300A0925302E326620706D31302E3054
S11310500A0925302E3266206E63302E350A0925A2
S1131060302E3266206E63312E300A0925302E323E
S113107066206E63322E350A0925302E3266206EC4
S113108063342E350A0925302E3266206E633130E2
S11310902E300A0925302E32662074797069636116
S11310A06C207061727469636C652073697A650A77
S11310B00A00312972656164206279746520657261
S11310C0726F7220726574203D202564003229728B
S11310D06561642062797465206572726F72207232
S11310E06574203D20256400534C41205472616E88
S11310F0736D69747465642C2041434B204E6F7486
S113110020526563656976656400646174613D308D
S113111078253032580A004461746120627974651C
S1131120202564206E6F742061636B6E6F776C652D
S1131130646765640A00577269746520636F6D7033
S10911406C6574652100DA
S9030000FC
