S01D000053656E696F722044657369676E2053656E736F72732E7372656310
S11300000C94DB000C94F8000C94F8000C94F800A9
S11300100C94F8000C94F8000C94F8000C94F8007C
S11300200C94F8000C94F8000C94F8000C94F8006C
S11300300C94F8000C94F8000C94F8000C94F8005C
S11300400C94F8000C94F8000C94F8000C94F8004C
S11300500C94F8000C94F8000C94F8000C94F8003C
S11300600C94F8000C94F8000C94F8000C94F8002C
S11300700C94F8000C94F8000C94F8000C94F8001C
S11300800C94F8000C94F8000C94F8000C94F8000C
S11300900C94F8000C94F8000C94F8000C94F800FC
S11300A00C94F8000C94F8000C94F8000C94F800EC
S11300B00C94F8006E616E00696E660000407A1060
S11300C0F35A00A0724E18090010A5D4E80000E805
S11300D07648170000E40B54020000CA9A3B000063
S11300E000E1F505000080969800000040420F00F2
S11300F00000A08601000000102700000000E803B3
S1130100000000006400000000000A00000000007D
S11301100100000000002C76D888DC674F0823DF3C
S1130120C1DFAE59E1B1B796E5E3E453C63AE6510F
S1130130997696E8E6C28426EB898C9B62ED407C36
S11301406FFCEFBC9C9F40F2BAA56FA5F490055AD2
S11301502AF75C936B6CF9676DC11BFCE0E40D47F7
S1130160FEF520E6B500D0ED902E0300943577051A
S11301700080841E080000204E0A000000C80C33D2
S11301803333330F986E12831141EF8D2114893B61
S1130190E65516CFFEE6DB18D1844B381BF77C1DE1
S11301A0901DA4BBE424203284725E228100C9F134
S11301B024ECA1E53D2711241FBECFEFD8E0DEBF1C
S11301C0CDBF12E0A0E0B1E0EAE9FBE102C0059096
S11301D00D92A63EB107D9F722E0A6EEB2E001C027
S11301E01D92AC3EB207E1F70E9414010C94CB0DB2
S11301F00C940000E0ECF0E0908195FFFDCF80933B
S1130200C60080E090E008951092C50087E68093D0
S1130210C400E1ECF0E0808188618083E2ECF0E0EE
S11302208081866080830895CF93DF93CDB7DEB756
S1130230CA54D1090FB6F894DEBF0FBECDBF0E94D9
S1130240040180E091E09093E9028093E8020E9427
S1130250CF040AC08EE091E00E943D0D60E472E498
S11302608FE090E00E94D5040E94B604892B91F798
S113027088E291E00E943D0DBE01665D7F4FCE0194
S113028089960E94B003892B29F086E491E00E94AC
S11302903D0D12C08AA51F928F9389A51F928F933B
S11302A085E691E09F938F930E94270D0F900F9006
S11302B00F900F900F900F90CE018B960E94D40355
S11302C0892B29F080E791E00E943D0D0EC0CE01FC
S11302D08B969F938F938CE891E09F938F930E94CA
S11302E0270D0F900F900F900F900E94EB0399230E
S11302F024F48FE991E00E943D0D8AEB91E00E9485
S11303003D0D09EE11E060E472E48FE090E00E949C
S1130310D504CE0101960E940F0499232CF48FEC8E
S113032091E00E943D0DEFCF88A58F938FA18F930D
S11303308EA18F938DA18F938CA18F938BA18F937B
S11303408AA18F9389A18F9388A18F938F8D8F9387
S11303508E8D8F938D8D8F938C8D8F938B8D8F93AB
S11303608A8D8F93898D8F93888D8F938F898F93A7
S11303708E898F938D898F938C898F938B898F939B
S11303808A898F9389898F9388898F938F858F9397
S11303908E858F938D858F938C858F938B858F938B
S11303A08A858F9389858F9388858F938F818F9387
S11303B08E818F938D818F938C818F938B818F937B
S11303C08A818F9389818F931F930F930E94270DA6
S11303D00FB6F894DEBF0FBECDBF95CFFC012081D0
S11303E06181862F90E0A0E0B0E0DC0199278827A6
S11303F0B22B2381822B2281BC01CD01722B089563
S11304000E94EE01089561157105A1F0FC01680FC9
S1130410791F8FEF21E39191892798E088231CF4B9
S1130420880F822701C0880F9150C1F7E617F7079C
S113043091F708958FEF0895CF93C42F0E9403027C
S113044091E08C1301C090E0892F8195CF9108959C
S1130450EF92FF920F931F93CF93DF93EC01788376
S11304606983222301F1E22E2296042F152FF12C09
S1130470F8018181888380810E5F1F4F898362E048
S113048070E0CE010E9403028A83F3942396EF1056
S1130490EFCFEA948E2D90E09C01220F331F820F40
S11304A0931F059602C082E090E0DF91CF911F91E7
S11304B00F91FF90EF9008956F927F928F929F9289
S11304C0AF92BF92CF92DF92EF92FF920F931F935E
S11304D0CF93DF93CDB7DEB7C054D1090FB6F894EC
S11304E0DEBF0FBECDBFC62ED72E4A01880C991C85
S11304F0840E951EA401BE016F5F7F4F0E945906B2
S1130500082F082E000C110B0115110531F481146C
S1130510910491F480E090E04AC01F938F9380E9A6
S113052092E09F938F930E94270D0F900F900F904E
S11305300F90802F912F3BC08E010F5F1F4FEC2C2B
S1130540FD2CC12CD12C0F2EFBEA6F2EF2E07F2E56
S1130550F02D5801F801428162E070E0C8010E9468
S11305601C02282F082E000C330B2115310551F0E5
S11305703F938F937F926F920E94270D0F900F905D
S11305800F900F90F5018081F7018083F50181813F
S1130590F7018183F3E0CF0ED11C0D5F1F4F82E082
S11305A0E80EF11CC814D904A0F280E090E0C05C0D
S11305B0DF4F0FB6F894DEBF0FBECDBFDF91CF91F2
S11305C01F910F91FF90EF90DF90CF90BF90AF906D
S11305D09F908F907F906F9008950F931F93CF9368
S11305E0DF938B01EA010E945C020097E1F42097FB
S11305F0C1F0E0E0F0E020E0EE0FFF1FE00FF11F9C
S1130600808190E0982F88273181832B9183808388
S11306102F5FE22FF0E0EC17FD0770F380E090E02D
S113062002C080E090E0DF91CF911F910F91089577
S11306301F93CF93DF9300D0CDB7DEB7182F20E000
S113064040E050E0CE0101960E94280242E050E0D2
S1130650BE016F5F7F4F812F0E946D06082E000C34
S1130660990B0F900F90DF91CF911F9108951F93D5
S1130670CF93DF93CDB7DEB7A0970FB6F894DEBF64
S11306800FBECDBF182FCE0101960E942802AC01E7
S1130690BE016F5F7F4F812F0E946D06082E000CF4
S11306A0990BA0960FB6F894DEBF0FBECDBFDF91B5
S11306B0CF911F9108958F929F92AF92BF92DF9234
S11306C0EF92FF920F931F93CF93DF9300D0CDB798
S11306D0DEB7D82E49015A0120E040E050E0CE01B7
S11306E001960E94280242E050E0BE016F5F7F4FF6
S11306F08D2D0E946D06282F880F330B211531058F
S113070079F481149104A104B10421F0C501B40168
S11307100E94D504A701B8018D2D0E94ED0202C0EC
S1130720822F932F0F900F90DF91CF911F910F91F4
S1130730FF90EF90DF90BF90AF909F908F900895BF
S1130740EF92FF920F931F9379018A0120E030E02A
S1130750A9010E945B031F910F91FF90EF900895F0
S1130760EF92FF920F931F93CF93DF9300D0CDB7F7
S1130770DEB77C018B0121E030E0AE014F5F5F4FBB
S113078060E071ED89E60E94A00329813A81F701B6
S11307903083F80120830F900F90DF91CF911F9148
S11307A00F91FF90EF900895CF93DF93EC0163E3F3
S11307B070ED89E60E9418039C01009741F440E122
S11307C050E0BE0189E60E945C021F8E01C0932F97
S11307D0DF91CF9108950F931F93CF93DF9300D0B0
S11307E0CDB7DEB780E093E09A83898321E030E0DF
S11307F0AE014F5F5F4F60E170E089E60E9437030E
S11308008C0160E27EE480E090E00E94D504C8019F
S11308100F900F90DF91CF911F910F910895EF9258
S1130820FF920F931F93CF93DF93CDB7DEB7A897B3
S11308300FB6F894DEBF0FBECDBF8C0160E073E04D
S113084089E60E941803009709F06AC044E150E069
S1130850BE016F5F7F4F89E60E945C027C010097B6
S113086009F05DC0CE0101960E940002F801608388
S1130870718382839383CE0105960E940002F8015E
S11308806483758386839783CE0109960E94000250
S1130890F8016087718782879387CE010D960E9445
S11308A00002F8016487758786879787CE01419691
S11308B00E940002F801608B718B828B938BCE01B6
S11308C045960E940002F801648B758B868B978B8A
S11308D0CE0149960E940002F801608F718F828FC9
S11308E0938FCE014D960E940002F801648F758F9C
S11308F0868F978FCE0181960E940002F80160A333
S113090071A382A393A3CE0185960E940002F801ED
S113091064A375A386A397A38E2D9F2D01C09F2D3D
S1130920A8960FB6F894DEBF0FBECDBFDF91CF916E
S11309301F910F91FF90EF900895CF93DF9363E0A1
S113094071E189E60E94180363E071E189E60E947F
S11309501803EC01892B31F468E873E180E090E03E
S11309600E94D504CE01DF91CF910895CF93DF93F8
S1130970CDB7DEB7A0970FB6F894DEBF0FBECDBFDC
S11309800E949D04CE0101960E94D403A0960FB646
S1130990F894DEBF0FBECDBFDF91CF9108951092C2
S11309A0B90089E48093B80008954F925F926F92E2
S11309B07F928F929F92AF92BF92CF92DF92EF92EB
S11309C0FF92CF930E9425076B017C012BEA3AEA40
S11309D04AEA50E40E94DC074B015C0120E030E06D
S11309E040E85FE30E947F0688230CF470C020E097
S11309F030E040E850E4C701B6010E94DC072B0157
S1130A003C0120E03FEF4FE757E40E94D707181658
S1130A100CF045C020E030E04AE754E4C701B601D9
S1130A200E9484064B015C0120E030E04AE755E473
S1130A300E94DC076B017C0120E030E040E85FE3CA
S1130A400E947F0688232CF120E03FEF4FE757E414
S1130A50C701B6010E94D7071816B4F420E030E0AD
S1130A6040E251E4C501B4010E94DC070E94F6068D
S1130A706115710569F120E931E0C9010197F1F7C8
S1130A8061507109D1F724C0C701B6010E94F6066E
S1130A9002C061E070E0CB010197F1F719C020E0DA
S1130AA030E04FE753E4C501B4010E94D70718169C
S1130AB044F4C301B2010E94F606CB010197F1F799
S1130AC00AC0C501B4010E94F606C62F01C0C1E0E8
S1130AD06C2F6A95F1F7CF91FF90EF90DF90CF9054
S1130AE0BF90AF909F908F907F906F905F904F904A
S1130AF00895BF92CF92DF92EF92FF920F931F93CC
S1130B00CF93DF934115510509F4B1C094EA909352
S1130B10BC00ECEBF0E090819923ECF76801982F8E
S1130B20C091B900C87FC83031F086EC92E00E94D1
S1130B303D0D8C2FB4C0990F9093BB0094E8909313
S1130B40BC00ECEBF0E090819923ECF7C091B90084
S1130B50C87FC83109F496C0C03209F080C085ED61
S1130B6092E00E943D0D76C0E70199917E01EB0170
S1130B709883B08290819923ECF7CC91C87FC832D6
S1130B8029F0C03309F466C08C2F89C04150510943
S1130B9059F773C048E001C040E194EA9093BC0067
S1130BA0ECEBF0E090819923ECF7C091B900C87F99
S1130BB04C1357C0880F81608093BB0084E88093F6
S1130BC0BC00ECEBF0E080818823ECF78091B90065
S1130BD0C82FC87FC03421F0C834E1F18C2F5FC026
S1130BE00130110521F1D901ECEBF0E00F2EF4EC0A
S1130BF0FF2EF02D49EB50E06BEB70E00150110932
S1130C00F08280818823ECF7EA018881C82FC87FAD
S1130C10C03549F51196EB018881ED012197888350
S1130C20CD01801B910B8217930751F701C0D901A5
S1130C3084E88093BC00ECEBF0E080818823ECF73F
S1130C408091B900C82FC87FC83579F48091BB0062
S1130C508C93C0E084E98093BC008C2F20C08C2F3F
S1130C601EC08C2F1CC08C2F1AC08C2F18C00115CD
S1130C70110509F08FCF80E012C0CD2809F08CCF88
S1130C80C0E0E8CFE62EF72E6BEB70E0ECEBF0E083
S1130C900F2EF4E8BF2EF02DA9EBB0E065CFDF9165
S1130CA0CF911F910F91FF90EF90DF90CF90BF9065
S1130CB008950F931F939B018A0140E050E060E088
S1130CC070E089E60E94790591E0811101C090E00D
S1130CD0892F81951F910F9108950F931F9300E021
S1130CE010E020E030E089E60E94790591E081116E
S1130CF001C090E0892F81951F910F9108950E9462
S1130D00620708F481E008950E9498060C949D07F8
S1130D100E94960758F00E948F0740F029F45F3F25
S1130D2029F00C94860751110C94D1070C948C076C
S1130D300E94AE0768F39923B1F3552391F3951BF1
S1130D40550BBB27AA2762177307840738F09F5FE8
S1130D505F4F220F331F441FAA1FA9F335D00E2E55
S1130D603AF0E0E832D091505040E695001CCAF7C2
S1130D702BD0FE2F29D0660F771F881FBB1F261785
S1130D8037074807AB07B0E809F0BB0B802DBF015C
S1130D90FF2793585F4F3AF09E3F510578F00C942B
S1130DA086070C94D1075F3FE4F3983ED4F386950D
S1130DB077956795B795F7959F5FC9F7880F911D4C
S1130DC09695879597F90895E1E0660F771F881F38
S1130DD0BB1F621773078407BA0720F0621B730BEB
S1130DE0840BBA0BEE1F88F7E09508950E94B607AE
S1130DF088F09F5798F0B92F9927B751B0F0E1F0D8
S1130E00660F771F881F991F1AF0BA95C9F714C087
S1130E10B13091F00E94D007B1E008950C94D0074E
S1130E20672F782F8827B85F39F0B93FCCF38695C0
S1130E3077956795B395D9F73EF49095809570951D
S1130E4061957F4F8F4F9F4F0895E89409C097FB9A
S1130E503EF490958095709561957F4F8F4F9F4F8D
S1130E609923A9F0F92F96E9BB279395F6958795D1
S1130E7077956795B795F111F8CFFAF4BB0F11F494
S1130E8060FF1BC06F5F7F4F8F4F9F4F16C088233B
S1130E9011F096E911C0772321F09EE8872F762F71
S1130EA005C0662371F096E8862F70E060E02AF0B2
S1130EB09A95660F771F881FDAF7880F969587959E
S1130EC097F90895990F0008550FAA0BE0E8FEEF73
S1130ED016161706E807F907C0F012161306E407FA
S1130EE0F50798F0621B730B840B950B39F40A26F3
S1130EF061F0232B242B252B21F408950A2609F4D1
S1130F00A140A6958FEF811D811D089597F99F67D4
S1130F1080E870E060E008959FEF80EC089500247D
S1130F200A941616170618060906089500240A944A
S1130F3012161306140605060895092E0394000CD0
S1130F4011F4882352F0BB0F40F4BF2B11F460FF5F
S1130F5004C06F5F7F4F8F4F9F4F089557FD905888
S1130F60440F551F59F05F3F71F04795880F97FB69
S1130F70991F61F09F3F79F0879508951216130623
S1130F801406551FF2CF4695F1DF08C01616170652
S1130F901806991FF1CF8695710561050894089587
S1130FA0E894BB2766277727CB0197F908950E9419
S1130FB0620708F48FEF08950E94EF070C949D07D1
S1130FC00E948F0738F00E94960720F0952311F0B5
S1130FD00C9486070C948C0711240C94D1070E945E
S1130FE0AE0770F3959FC1F3950F50E0551F629FB4
S1130FF0F001729FBB27F00DB11D639FAA27F00D6E
S1131000B11DAA1F649F6627B00DA11D661F829F94
S11310102227B00DA11D621F739FB00DA11D621F79
S1131020839FA00D611D221F749F3327A00D611D96
S1131030231F849F600D211D822F762F6A2F112478
S11310409F5750409AF0F1F088234AF0EE0FFF1FAB
S1131050BB1F661F771F881F91505040A9F79E3F02
S1131060510580F00C9486070C94D1075F3FE4F39C
S1131070983ED4F3869577956795B795F795E79558
S11310809F5FC1F7FE2B880F911D9695879597F961
S11310900895A0E1B0E0EFE4F8E00C94C60B7C0105
S11310A01B016A01FC0117821682838181FF44C3FC
S11310B09E012F5F3F4F3901F7019381F10193FDA9
S11310C0859193FF81911F01882309F431C38532EF
S11310D039F493FD859193FF81911F01853239F491
S11310E0B70190E00E94EB0C56016501E5CF10E0DA
S11310F0512C912CFFE1F915D8F08B3279F038F4AA
S1131100803279F08332A1F4F92DF0612EC08D3252
S113111061F0803369F4292D21602DC0392D3260AE
S1131120932E892D8460982E2AC0E92DE86015C07D
S113113097FC2DC020ED280F2A3088F496FE06C0B7
S11311403AE0139F200D1124122F19C08AE0589EF3
S1131150200D1124522EE92DE0629E2E10C08E32F5
S113116031F496FCE5C2F92DF0649F2E08C08C364C
S113117021F4292D2068922E02C0883641F4F10111
S113118093FD859193FF81911F018111B3CF9BEB57
S1131190980F933020F4992D9061805E07C09BE9ED
S11311A0980F933008F066C1992D9F7E96FF16E044
S11311B09F73992E853619F49064992E08C086364B
S11311C021F4392F3068932E02C01111115097FE6B
S11311D007C01C3350F444244394410E27E00BC051
S11311E0183038F027E017E005C027E09CE3492ECB
S11311F002C0212F412C560184E0A80EB11CF60137
S11312006081718182819381042DA3010E94FD0B71
S11312106C01F981FC87F0FF02C0F3FF06C091FC6A
S113122006C092FE06C000E205C00DE203C00BE258
S113123001C000E08C858C7019F001115AC29BC268
S113124097FE10C04C0CFC85F4FF04C08A818133E6
S113125009F44A94141474F528E0241578F588E008
S1131260482E2CC096FC2AC0812F90E08C159D0539
S11312709CF03CEFC3163FEFD30674F0892D8068D1
S1131280982E0AC0E2E0F0E0EC0FFD1FE10FF11D23
S11312908081803319F411501111F4CF97FE0EC0E0
S11312A044244394410E812F90E0C816D9062CF4AF
S11312B01C1904C04424439401C010E097FE06C0E6
S11312C01C141D0434F4C601019605C085E090E0A9
S11312D002C081E090E001110196112331F0212F29
S11312E030E02F5F3F4F820F931F252D30E0821790
S11312F0930714F4581A01C0512C892D897049F4AC
S1131300552039F0B70180E290E00E94EB0C5A942A
S1131310F7CF002329F0B701802F90E00E94EB0C57
S113132093FC09C0552039F0B70180E390E00E9496
S1131330EB0C5A94F7CF97FE4CC04601D7FE02C07F
S1131340812C912CC60188199909F301E80FF91F22
S1131350FE87ED87960124193109388B2F87012FD9
S113136010E01195019511093FEF8316930629F4B6
S1131370B7018EE290E00E94EB0CC814D9044CF043
S11313808F8598898815990524F4ED85FE858181DA
S113139001C080E3F1E08F1A91082D853E852F5F0F
S11313A03F4F3E872D87801691062CF0B70190E0C1
S11313B00E94EB0CD9CFC814D90441F49A81963316
S11313C020F4953319F43C8534FF81E3B70190E0B0
S11313D04EC08A81813319F09C859F7E9C87B7011A
S11313E090E00E94EB0C111105C094FC18C085E636
S11313F090E017C0B7018EE290E00E94EB0C1E5FF4
S113140082E001E0080FF301E80FF11D8081B701CC
S113141090E00E94EB0C802F0113F3CFE6CF85E41C
S113142090E0B7010E94EB0CD7FC06C0C114D104B4
S113143041F4EC85E4FF05C0D194C194D1088DE258
S113144001C08BE2B70190E00E94EB0C80E32AE03C
S1131450C216D1042CF08F5FFAE0CF1AD108F7CF6F
S1131460B70190E00E94EB0CB701C601C0960E9440
S1131470EB0C54C1833631F0833779F0833509F0AE
S113148056C020C0560132E0A30EB11CF601808183
S1131490898301E010E0630112C05601F2E0AF0E4F
S11314A0B11CF601C080D18096FE03C0612F70E0AC
S11314B002C06FEF7FEFC6010E94E00C8C01F92D92
S11314C0FF7714C0560122E0A20EB11CF601C080C1
S11314D0D18096FE03C0612F70E002C06FEF7FEFF2
S11314E0C6010E94D50C8C01F92DF0689F2EF3FDE6
S11314F01AC0852D90E008171907A8F4B70180E2F7
S113150090E00E94EB0C5A94F4CFF60197FC85917D
S113151097FE81916F01B70190E00E94EB0C51108E
S11315205A94015011090115110579F7F7C0843651
S113153011F0893661F5560197FE09C024E0A20E28
S1131540B11CF60160817181828193810AC0F2E04D
S1131550AF0EB11CF60160817181072E000C880B5F
S1131560990BF92DFF769F2E97FF09C090958095D2
S1131570709561957F4F8F4F9F4FF0689F2E2AE0A3
S113158030E0A3010E946D0DC82EC6183FC0092D7E
S1131590853721F40F7E2AE030E01DC0097F8F36A5
S11315A091F018F4883559F0C3C0803719F08837A2
S11315B011F0BEC0006104FF09C0046007C094FEBE
S11315C008C0066006C028E030E005C020E130E035
S11315D002C020E132E0560107FF09C084E0A80EF2
S11315E0B11CF601608171818281938108C0F2E0AF
S11315F0AF0EB11CF6016081718180E090E0A3011F
S11316000E946D0DC82EC6180F77902E96FE0BC043
S1131610092D0E7FC11650F494FE0AC092FC08C036
S1131620092D0E7E05C0DC2C092D03C0DC2C01C065
S1131630D12E04FF0DC0FE01EC0DF11D808180331D
S113164011F4097E09C002FF06C0D394D39404C0E8
S1131650802F867809F0D39403FD11C000FF06C0E3
S11316601C2DD51480F4150D1D190DC0D51458F476
S1131670B70180E290E00E94EB0CD394F7CFD5142D
S113168010F45D1801C0512C04FF10C0B70180E3B1
S113169090E00E94EB0C02FF17C001FD03C088E735
S11316A090E002C088E590E0B7010CC0802F8678F6
S11316B059F001FF02C08BE201C080E207FD8DE218
S11316C0B70190E00E94EB0CC11638F4B70180E337
S11316D090E00E94EB0C1150F7CFCA94F301EC0D8B
S11316E0F11D8081B70190E00E94EB0CC110F5CF91
S11316F015C0F4E0F51560F584E0581A93FE1FC098
S1131700011127C02C8523FF2AC004EB10E0392DDA
S11317103071932EF8018491811124C0552009F46D
S1131720E4CCB70180E290E00E94EB0C5A94F6CF2F
S1131730F7018681978126C08FEF9FEF23C0B70101
S113174080E290E00E94EB0C5A945110F8CFD8CF6D
S1131750512CB701802F90E00E94EB0CD3CF08EB03
S113176010E0D5CF91108052B70190E00E94EB0CAD
S11317700F5F1F4FCFCF23E0251510F483E0BDCFBB
S1131780512CC0CF6096E2E10C94E20B2F923F9271
S11317904F925F926F927F928F929F92AF92BF927D
S11317A0CF92DF92EF92FF920F931F93CF93DF9329
S11317B0CDB7DEB7CA1BDB0B0FB6F894DEBF0FBE86
S11317C0CDBF09942A88398848885F846E847D84D3
S11317D08C849B84AA84B984C884DF80EE80FD80D5
S11317E00C811B81AA81B981CE0FD11D0FB6F8944B
S11317F0DEBF0FBECDBFED010895283008F027E00D
S11318003327DA01990F311D87FD91600096610538
S1131810710539F432602E5F3D9330E32A95E1F788
S113182008959F3F30F080387105610509F03C5FF1
S11318303C5F3D93913008F08068911DDF93CF9316
S11318401F930F93FF92EF92192F987F9695E92F8C
S113185096959695E90FFF27EA5EFE4F9927332761
S1131860EE24FF24A701E70105900894079428F4C7
S1131870360FE71EF81E491F511D660F771F881F7C
S1131880991F0694A1F70590079428F4E70EF81E13
S1131890491F561FC11D770F881F991F661F069485
S11318A0A1F70590079428F4F80E491F561FC71F87
S11318B0D11D880F991F661F771F0694A1F7059005
S11318C0079420F4490F561FC71FD81F990F661F8E
S11318D0771F881F0694A9F784911095177041F01B
S11318E0D695C79557954795F794E7941A95C1F7F8
S11318F0ECEBF0E068941590159135916591959114
S113190005907FE27395E118F10A430B560BC90B5E
S1131910D009C0F7E10CF11E431F561FC91FD01D8B
S11319207EF4703311F48A95E6CFE894015030F0D8
S1131930080F0AF40027021708F4202F2395022F1A
S11319407A3328F079E37D932A95E9F710C07D93E3
S11319502A9589F606949795679537951795179460
S1131960E118F10A430B560BC90BD00998F02395E3
S11319707E9173957A3308F070E37C932013B8F763
S11319807E9170617D9330F0839571E37D9370E374
S11319902A95E1F71124EF90FF900F911F91CF91B9
S11319A0DF91992787FD90950895FC01059061507A
S11319B070400110D8F7809590958E0F9F1F089561
S11319C0FC016150704001900110D8F7809590950A
S11319D08E0F9F1F08950F931F93CF93DF93FB01E7
S11319E0238121FD03C08FEF9FEF2CC022FF16C07F
S11319F046815781248135814217530744F4A081DD
S1131A00B1819D012F5F3F4F318320838C932681C9
S1131A1037812F5F3F4F3783268314C08B01EC013E
S1131A20FB010084F185E02D0995892BE1F6D801AD
S1131A3016968D919C911797019617969C938E9369
S1131A401697CE01DF91CF911F910F910895A0E0D9
S1131A50B0E0EDE2FDE00C94D60BAE014B5F5F4FBE
S1131A60FA0161917191AF018091E8029091E902CC
S1131A700E944908E2E00C94F20B0F931F93CF935A
S1131A80DF93E091E802F091E902238121FF1BC07A
S1131A908C01D0E0C0E0F80181918F016091E802EF
S1131AA07091E902DB011896ED91FC911997882356
S1131AB031F00995892B79F3DFEFCFEFECCF8AE092
S1131AC00995892B19F08FEF9FEF02C08D2F9C2F62
S1131AD0DF91CF911F910F910895FA01AA27283021
S1131AE051F1203181F1E8946F936E7F6E5F7F4FE7
S1131AF08F4F9F4FAF4FB1E03ED0B4E03CD0670F63
S1131B00781F891F9A1FA11D680F791F8A1F911DB5
S1131B10A11D6A0F711D811D911DA11D20D009F405
S1131B2068943F912AE0269F11243019305D319347
S1131B30DEF6CF010895462F4770405D4193B3E030
S1131B400FD0C9F7F6CF462F4F70405D4A3318F0D7
S1131B50495D31FD4052419302D0A9F7EACFB4E088
S1131B60A6959795879577956795BA95C9F7009740
S1131B706105710508959B01AC010A2E06945795E1
S1131B80479537952795BA95C9F7620F731F841F38
S10D1B90951FA01D0895F894FFCFDF
S1131B9A0000000200000000FA0000000000535098
S1131BAA532073656E736F722070726F62696E6709
S1131BBA206661696C6564005350532073656E73C3
S1131BCA6F722070726F62696E67207375636365E2
S1131BDA737366756C006572726F722072656164E4
S1131BEA696E67206669726D7761726520766572BF
S1131BFA73696F6E0046573A2025752E25750A00BB
S1131C0A6572726F722072656164696E67207365AA
S1131C1A7269616C206E756D6265720053657269D2
S1131C2A616C204E756D6265723A2025730A0065EF
S1131C3A72726F72207374617274696E67206D6553
S1131C4A61737572656D656E74006D656173757225
S1131C5A656D656E7473207374617274656400656E
S1131C6A72726F722072656164696E67206D656154
S1131C7A737572656D656E74006D656173757265F1
S1131C8A642076616C7565733A0A0925302E3266CA
S1131C9A20706D312E300A0925302E326620706D7F
S1131CAA322E350A0925302E326620706D342E30D4
S1131CBA0A0925302E326620706D31302E300A0919
S1131CCA25302E3266206E63302E350A0925302ED1
S1131CDA3266206E63312E300A0925302E32662090
S1131CEA6E63322E350A0925302E3266206E63342D
S1131CFA2E350A0925302E3266206E6331302E3095
S1131D0A0A0925302E3266207479706963616C2061
S1131D1A7061727469636C652073697A650A0A0072
S1131D2A3129726561642062797465206572726F03
S1131D3A7220726574203D2025640032297265611F
S1131D4A642062797465206572726F722072657498
S1131D5A203D2025640053746174757320213D204D
S1131D6A3078303800476F696E6720746F206E616F
S1091D7A6B73746F70002E
S9030000FC
