S01D000053656E696F722044657369676E2053656E736F72732E7372656310
S11300000C94DB000C94F8000C94F8000C94F800A9
S11300100C94F8000C94F8000C94F8000C94F8007C
S11300200C94F8000C94F8000C94F8000C94F8006C
S11300300C94F8000C94F8000C94F8000C94F8005C
S11300400C94F8000C94F8000C94F8000C94F8004C
S11300500C94F8000C94F8000C94F8000C94F8003C
S11300600C94F8000C94F8000C94F8000C94F8002C
S11300700C945C040C94F8000C94F8000C94F800B4
S11300800C94F8000C94F8000C94F8000C94F8000C
S11300900C94F8000C94F8000C94F8000C94F800FC
S11300A00C94F8000C94F8000C94F8000C94F800EC
S11300B00C94F8006E616E00696E660000407A1060
S11300C0F35A00A0724E18090010A5D4E80000E805
S11300D07648170000E40B54020000CA9A3B000063
S11300E000E1F505000080969800000040420F00F2
S11300F00000A08601000000102700000000E803B3
S1130100000000006400000000000A00000000007D
S11301100100000000002C76D888DC674F0823DF3C
S1130120C1DFAE59E1B1B796E5E3E453C63AE6510F
S1130130997696E8E6C28426EB898C9B62ED407C36
S11301406FFCEFBC9C9F40F2BAA56FA5F490055AD2
S11301502AF75C936B6CF9676DC11BFCE0E40D47F7
S1130160FEF520E6B500D0ED902E0300943577051A
S11301700080841E080000204E0A000000C80C33D2
S11301803333330F986E12831141EF8D2114893B61
S1130190E65516CFFEE6DB18D1844B381BF77C1DE1
S11301A0901DA4BBE424203284725E228100C9F134
S11301B024ECA1E53D2711241FBECFEFD8E0DEBF1C
S11301C0CDBF13E0A0E0B1E0ECEEF0E202C0059098
S11301D00D92A439B107D9F724E0A4E9B3E001C032
S11301E01D92AE30B207E1F70E94FA000C9474102D
S11301F00C940000CF93DF93CDB7DEB7CF51D1403D
S11302000FB6F894DEBF0FBECDBF0E94F9010E9465
S11302103D020E944B028EE091E0892F8F938EE085
S113022091E08F930E94A70F0F900F9078940E94F3
S1130230D60482E60E94CF0783E191E00E94C40FB6
S11302401C821B8226E0CE014A96FC01322F1192B9
S11302503A95E9F71D821F821E82188619861A862E
S11302601B861C861D861E861F86198A188A1B8A71
S11302701A8A1A821982ACC089819A8180569C4F4D
S1130280FC018081803409F08EC00E94EC028DE272
S113029091E00E94C40F0E9437030E9470039D8B5B
S11302A08C8B8C899D890E94AD03DC01CB018E8BE4
S11302B09F8BA88FB98F898D8F93888D8F938F890A
S11302C08F938E898F938EE391E0892F8F938EE3A2
S11302D091E08F93CE018096292F2F938F930E94C4
S11302E0F40F8DB79EB708960FB6F894DEBF0FBE15
S11302F0CDBFCE0180960E94B60280E00E94C70462
S11303000E9455089C838B838B819C81892B89F067
S11303108C818F938B818F9388E491E0892F8F93C5
S113032088E491E08F930E94A70F0F900F900F9095
S11303300F900E9416089C838B838B819C81892B50
S113034089F08C818F938B818F9387E691E0892F3D
S11303508F9387E691E08F930E94A70F0F900F90E1
S11303600F900F900E94DD079C838B838B819C816F
S1130370892BA1F08C818F938B818F9385E891E0F9
S1130380892F8F9385E891E08F930E94A70F0F9098
S11303900F900F900F908B819C8121C087EB91E08F
S11303A00E94C40F10C00E945F03CE01809620E11A
S11303B0EFECF1E0DC0101900D922A95E1F7CE011A
S11303C080960E94B60289819A8101969A838983D4
S11303D089819A818034910508F44ECF4ACFC15E59
S11303E0DE4F0FB6F894DEBF0FBECDBFDF91CF91C5
S11303F00895CF93DF93CDB7DEB785EC90E0FC0191
S1130400108284EC90E027E6FC01208381EC90E0EC
S113041021EC30E0F90120812861FC01208382EC89
S113042090E022EC30E0F90120812660FC01208379
S11304300000DF91CF910895CF93DF9300D01F92F6
S1130440CDB7DEB789837B836A83000080EC90E0BC
S1130450FC018081882F90E080729927892BB1F369
S113046086EC90E02981FC01208380E090E00F90ED
S11304700F900F90DF91CF910895CF93DF93CDB775
S1130480DEB780E091E090930B0480930A040000AF
S1130490DF91CF910895CF93DF93CDB7DEB78CEA88
S11304A090E02CEA30E0F90120812F7BFC012083CD
S11304B084E690E024E630E0F90120812F7EFC01FF
S11304C0208384E290E024E230E0F9012081286076
S11304D0FC01208384E290E024E230E0F9012081F1
S11304E02F7EFC0120838DEC90E0FC0110828CECCB
S11304F090E027E6FC01208389EC90E029EC30E0D1
S1130500F90120812869FC0120838AEC90E02AEC1F
S113051030E0F90120812660FC0120838AEC90E020
S11305202AEC30E0F90120812F73FC0120830000C4
S1130530DF91CF910895CF93DF931F92CDB7DEB7AC
S11305408983000088EC90E0FC018081882F90E092
S113055080729927892BB1F38EEC90E02981FC01FC
S1130560208300000F90DF91CF910895CF93DF9304
S113057000D0CDB7DEB79A8389838FED91E0892FC0
S11305808F938FED91E08F930E94A70F0F900F90A0
S113059013C089819A81FC018081882F90E00E9498
S11305A0BD0F89819A819C012F5F3F4F3A83298334
S11305B0FC0180810E949B0289819A81FC018081D7
S11305C0882339F785EE91E00E94C40F00000F9054
S11305D00F90DF91CF910895CF93DF93CDB7DEB71E
S11305E040E450E060E070E080EA93E00E94590F3C
S11305F0109294030000DF91CF910895CF93DF937D
S113060000D0CDB7DEB78EEE91E0892F8F938EEEBA
S113061091E08F930E94A70F0F900F901A82198276
S113062017C089819A8180569C4FFC018081882360
S113063051F089819A8180569C4FFC018081882FDA
S113064090E00E94BD0F89819A8101969A838983E3
S113065089819A818034910520F38EEF91E00E9484
S1130660C40F00000F900F90DF91CF910895CF93A6
S1130670DF93CDB7DEB78AE790E02AE730E0F901EF
S113068020812068FC0120838AE790E02AE730E09B
S1130690F90120812760FC0120838CE790E020E4AD
S11306A0FC01208387E290E027E230E0F901208119
S11306B02E7FFC0120830000DF91CF910895CF931A
S11306C0DF93CDB7DEB78AE790E02AE730E0F9019F
S11306D020812F77FC0120830000DF91CF910895C2
S11306E0CF93DF9300D0CDB7DEB71A8219828AE7A1
S11306F090E02AE730E0F90120812064FC012083A6
S113070000008AE790E0FC018081882F90E08074EB
S11307109927892BB1F788E790E0FC018081882F25
S113072090E029813A81822B932B9A83898389E7EC
S113073090E0FC018081882F90E0982F88279C010D
S113074089819A81822B932B9A83898389819A81C7
S11307500F900F90DF91CF910895CF93DF93CDB792
S1130760DEB7CA50D1400FB6F894DEBF0FBECDBF7E
S11307709E01275F3E4FF90191838083CE01875FFD
S11307809E4FFC0180819181CC01A0E0B0E0BC01CE
S1130790CD010E949E09DC01CB0120E030EC4FE743
S11307A054E4BC01CD010E94FD08DC01CB0120E032
S11307B030E040EA50E4BC01CD010E94550ADC015E
S11307C0CB018D839E83AF83B88720E030E040E285
S11307D050E46D817E818F8198850E948B08DC01B5
S11307E0CB012DEC3CEC4CE45DE3BC01CD010E945B
S11307F0FD08DC01CB0189839A83AB83BC8320E0B1
S113080030E040E252EC69817A818B819C810E94C4
S1130810F8088823BCF480E090E0A0E2B2EC89837D
S11308209A83AB83BC83CE0109962BE1E1E0F3E02C
S1130830DC0101900D922A95E1F7CE0109960E9400
S1130840B60222C020E030E040E252E469817A81BD
S11308508B819C810E94500A1816B4F480E090E0C9
S1130860A0E2B2E489839A83AB83BC83CE01099668
S11308702BE1ECE1F3E0DC0101900D922A95E1F724
S1130880CE0109960E94B602CE01099640E051E0DD
S113089060E070E00E94590F89819A81AB81BC812C
S11308A0BC01CD01C65FDE4F0FB6F894DEBF0FBEAC
S11308B0CDBFDF91CF9108951F920F9200905F00FA
S11308C00F9211242F933F934F935F936F937F93D2
S11308D08F939F93AF93BF93EF93FF93CF93DF9344
S11308E01F92CDB7DEB78EEC90E0FC018081898346
S11308F08981882F90E0292F2F938F938FE393E0A2
S1130900892F8F938FE393E08F930E94A70F0F900B
S11309100F900F900F90809194038F3378F480910F
S11309209403882F90E0298180569C4FFC012083FA
S1130930809194038F5F8093940313C08DE493E0BC
S11309400E94C40F86E693E0892F8F9386E693E096
S11309508F930E94A70F0F900F900E94FE020E9497
S1130960EC0200000F90DF91CF91FF91EF91BF91C6
S1130970AF919F918F917F916F915F914F913F9133
S11309802F910F9000925F000F901F901895CF93B6
S1130990DF931F92CDB7DEB7898389818093950356
S11309A080E090E00F90DF91CF910895CF93DF9393
S11309B0CDB7DEB789EB90E0FC01108288EB90E0C4
S11309C029E4FC01208389ED90E0FC01108288ED8C
S11309D090E029E4FC0120830000DF91CF91089589
S11309E0CF93DF93CDB7DEB7A4970FB6F894DEBFED
S11309F00FBECDBF69A37AA38BA39CA369A17AA1DF
S1130A008BA19CA10E949E09DC01CB0189839A835E
S1130A10AB83BC832BEA3AEA4AEA50E469817A81DF
S1130A208B819C810E94550ADC01CB018D839E83BE
S1130A30AF83B88720E030E040E850E469817A81F0
S1130A408B819C810E94550ADC01CB0189879A879E
S1130A50AB87BC8720E030E040E85FE36D817E81B6
S1130A608F8198850E94F80888231CF481E08D8783
S1130A70B2C020E03FEF4FE757E469857A858B8564
S1130A809C850E94500A18160CF07BC020E030E0D0
S1130A904AE754E469817A818B819C810E94FD0834
S1130AA0DC01CB018E879F87A88BB98B20E030E0D7
S1130AB04AE755E46E857F85888999890E94550A9D
S1130AC0DC01CB018A8B9B8BAC8BBD8B20E030E0AF
S1130AD040E85FE36A897B898C899D890E94F808D4
S1130AE088232CF481E090E09F8B8E8B3FC020E024
S1130AF03FEF4FE757E46A897B898C899D890E947F
S1130B00500A18164CF520E030E040E251E46E85BE
S1130B107F85888999890E94550ADC01CB01BC0133
S1130B20CD010E946F09DC01CB019F8B8E8B0FC01E
S1130B3080E991E0998F888F888D998D0197F1F7DD
S1130B40998F888F8E899F8901979F8B8E8B8E8931
S1130B509F89892B69F73FC06A897B898C899D8924
S1130B600E946F09DC01CB019F8B8E8B8E899F893C
S1130B709B8F8A8F8A8D9B8D0197F1F79B8F8A8F2C
S1130B802AC020E030E04FE753E46D817E818F81FD
S1130B9098850E94500A1816ACF469857A858B856D
S1130BA09C850E946F09DC01CB019D8F8C8F8C8DFD
S1130BB09D8D9F8F8E8F8E8D9F8D0197F1F79F8FC7
S1130BC08E8F0FC06D817E818F8198850E946F0901
S1130BD0DC01CB018D878D8588A388A18A95F1F7E7
S1130BE088A30000A4960FB6F894DEBF0FBECDBF55
S1130BF0DF91CF9108950F931F93CF93DF93CDB7D8
S1130C00DEB72D970FB6F894DEBF0FBECDBF8D8330
S1130C107F836E83598748873B872A871D870C8784
S1130C2019821B821A821092950380919503813058
S1130C3009F02AC188859985892B09F472C081E05D
S1130C408B8381E08A838CED90E024EAFC0120838D
S1130C5000008CED90E0FC0180818823D4F789EDBD
S1130C6090E0FC018081887F89838981883031F01C
S1130C7084E893E00E94C40F898106C18BED90E063
S1130C802D81220FFC0120838CED90E024E8FC01EF
S1130C90208300008CED90E0FC0180818823D4F750
S1130CA089ED90E0FC018081887F89838981883186
S1130CB071F18981803209F4D8C08981E5C02BEDB6
S1130CC030E08E819F81AC014F5F5F4F5F834E8325
S1130CD0FC018081F90180838CED90E024E8FC0123
S1130CE0208300008CED90E0FC0180818823D4F700
S1130CF089ED90E0FC018081887F89838981883235
S1130D0031F08981803309F4B2C08981BDC08885FE
S1130D1099859C012150310939872887892B79F6D7
S1130D2019828C859D85892B09F4A4C081E08A836E
S1130D308B81882311F080E101C088E08C838CEDE5
S1130D4090E024EAFC01208300008CED90E0FC019B
S1130D5080818823D4F789ED90E0FC018081887F2D
S1130D60898399818C81981711F089818DC08BEDCD
S1130D7090E02D81222F30E0220F331F2160FC01EF
S1130D8020838CED90E024E8FC01208300008CEDAE
S1130D9090E0FC0180818823D4F789ED90E0FC0188
S1130DA08081887F89838981803431F08981883486
S1130DB009F45FC0898168C08C859D8501979D87F2
S1130DC08C8724C08CED90E024ECFC01208300008F
S1130DD08CED90E0FC0180818823D4F789ED90E0CC
S1130DE0FC018081887F89838981803511F0898124
S1130DF04BC08A859B859C012F5F3F4F3B872A8789
S1130E002BED30E0F9012081FC0120838C859D8548
S1130E109C01215031093D872C87892B99F68CED53
S1130E2090E024E8FC01208300008CED90E0FC01BC
S1130E3080818823D4F789ED90E0FC018081887F4C
S1130E4089838981883511F089811EC08A859B85B3
S1130E509C012F5F3F4F3B872A872BED30E0F90140
S1130E602081FC012083198205C0000003C000001A
S1130E7001C000008A81882329F08CED90E024E9E8
S1130E80FC012083898100C02D960FB6F894DEBF43
S1130E900FBECDBFDF91CF911F910F9108950F9396
S1130EA01F93CF93DF9300D000D01F92CDB7DEB74E
S1130EB089837B836A835D834C834C815D818A81D2
S1130EC09B8100E010E020E030E0BC0182E60E945B
S1130ED0FB05882311F08FEF01C080E00F900F9085
S1130EE00F900F900F90DF91CF911F910F91089564
S1130EF0CF93DF9300D000D01F92CDB7DEB78983A4
S1130F007B836A835D834C832C813D818A819B81B1
S1130F10A901BC0189810E944F07082E000C990B7E
S1130F200F900F900F900F900F90DF91CF91089535
S1130F30CF93DF9300D000D000D0CDB7DEB79A8333
S1130F4089837C836B835E834D838B819C819C012D
S1130F502F5F3F4F3C832B8329813A81820F931F5C
S1130F602D813E81232F3327FC0120838B819C819B
S1130F709C012F5F3F4F3C832B8329813A81820F51
S1130F80931F2D81FC0120838B819C8126960FB6B3
S1130F90F894DEBF0FBECDBFDF91CF910895CF93FC
S1130FA0DF931F92CDB7DEB78983898180939F0336
S1130FB000000F90DF91CF910895CF93DF9300D07D
S1130FC000D000D0CDB7DEB71A82198286E993E04B
S1130FD09C838B831E821D822D813E818B819C810B
S1130FE041EB51E2B9010E9498079E838D83E09101
S1130FF09F032D813E818B819C81A901BC018E2F91
S11310000E9478079A83898389819A81892B19F0B0
S113101089819A8102C089819A8126960FB6F894B3
S1131020DEBF0FBECDBFDF91CF910895CF93DF9385
S113103000D000D000D0CDB7DEB71A82198286E97D
S113104093E09C838B831E821D822D813E818B8144
S11310509C8146E456E3B9010E9498079E838D83E0
S1131060E0919F032D813E818B819C81A901BC016C
S11310708E2F0E9478079A83898389819A81892B8C
S113108019F089819A8108C060E375E780E090E0F7
S11310900E94F00489819A8126960FB6F894DEBFE7
S11310A00FBECDBFDF91CF910895CF93DF9300D0D2
S11310B000D000D0CDB7DEB71A82198286E993E05A
S11310C09C838B831E821D822D813E818B819C811A
S11310D046EF56E3B9010E9498079E838D83E09101
S11310E09F032D813E818B819C81A901BC018E2FA0
S11310F00E94780760E375E780E090E00E94F004C6
S113110089819A8126960FB6F894DEBF0FBECDBFB3
S1131110DF91CF9108955058BB27AA270E94A308B6
S11311200C94160A0E94080A38F00E940F0A20F054
S113113039F49F3F19F426F40C94050A0EF4E09553
S1131140E7FB0C94FF09E92F0E94270A58F3BA170A
S1131150620773078407950720F079F4A6F50C94C9
S1131160490A0EF4E0950B2EBA2FA02D0B01B901FC
S113117090010C01CA01A0011124FF27591B99F009
S1131180593F50F4503E68F11A16F040A22F232F15
S1131190342F4427585FF3CF469537952795A79565
S11311A0F0405395C9F77EF41F16BA0B620B730B0C
S11311B0840BBAF09150A1F0FF0FBB1F661F771F7D
S11311C0881FC2F70EC0BA0F621F731F841F48F432
S11311D0879577956795B795F7959E3F08F0B0CFBB
S11311E09395880F08F09927EE0F979587950895A2
S11311F00E94DB0908F481E008950E9411090C940F
S1131200160A0E940F0A58F00E94080A40F029F4B6
S11312105F3F29F00C94FF0951110C944A0A0C9475
S1131220050A0E94270A68F39923B1F3552391F321
S1131230951B550BBB27AA2762177307840738F041
S11312409F5F5F4F220F331F441FAA1FA9F335D09E
S11312500E2E3AF0E0E832D091505040E695001C52
S1131260CAF72BD0FE2F29D0660F771F881FBB1F0C
S1131270261737074807AB07B0E809F0BB0B802DEA
S1131280BF01FF2793585F4F3AF09E3F510578F016
S11312900C94FF090C944A0A5F3FE4F3983ED4F39C
S11312A0869577956795B795F7959F5FC9F7880FEA
S11312B0911D9695879597F90895E1E0660F771F3C
S11312C0881FBB1F621773078407BA0720F0621BCD
S11312D0730B840BBA0BEE1F88F7E09508950E94F8
S11312E02F0A88F09F5798F0B92F9927B751B0F07B
S11312F0E1F0660F771F881F991F1AF0BA95C9F796
S113130014C0B13091F00E94490AB1E008950C94E0
S1131310490A672F782F8827B85F39F0B93FCCF393
S1131320869577956795B395D9F73EF49095809512
S1131330709561957F4F8F4F9F4F0895E89409C032
S113134097FB3EF490958095709561957F4F8F4FF4
S11313509F4F9923A9F0F92F96E9BB279395F6950A
S1131360879577956795B795F111F8CFFAF4BB0F88
S113137011F460FF1BC06F5F7F4F8F4F9F4F16C0EC
S1131380882311F096E911C0772321F09EE8872F76
S1131390762F05C0662371F096E8862F70E060E032
S11313A02AF09A95660F771F881FDAF7880F9695AB
S11313B0879597F90895990F0008550FAA0BE0E84F
S11313C0FEEF16161706E807F907C0F01216130603
S11313D0E407F50798F0621B730B840B950B39F443
S11313E00A2661F0232B242B252B21F408950A26A9
S11313F009F4A140A6958FEF811D811D089597F9E9
S11314009F6780E870E060E008959FEF80EC0895A6
S113141000240A94161617061806090608950024CF
S11314200A9412161306140605060895092E039449
S1131430000C11F4882352F0BB0F40F4BF2B11F4BD
S113144060FF04C06F5F7F4F8F4F9F4F089557FD1C
S11314509058440F551F59F05F3F71F04795880F1E
S113146097FB991F61F09F3F79F0879508951216B5
S113147013061406551FF2CF4695F1DF08C0161661
S113148017061806991FF1CF869571056105089412
S11314900895E894BB2766277727CB0197F9089529
S11314A00E94DB0908F48FEF08950E94680A0C94E7
S11314B0160A0E94080A38F00E940F0A20F09523A9
S11314C011F00C94FF090C94050A11240C944A0A97
S11314D00E94270A70F3959FC1F3950F50E0551FA2
S11314E0629FF001729FBB27F00DB11D639FAA2775
S11314F0F00DB11DAA1F649F6627B00DA11D661FC4
S1131500829F2227B00DA11D621F739FB00DA11DE4
S1131510621F839FA00D611D221F749F3327A00D9E
S1131520611D231F849F600D211D822F762F6A2F3A
S113153011249F5750409AF0F1F088234AF0EE0F9F
S1131540FF1FBB1F661F771F881F91505040A9F7CC
S11315509E3F510580F00C94FF090C944A0A5F3FAA
S1131560E4F3983ED4F3869577956795B795F79508
S1131570E7959F5FC1F7FE2B880F911D9695879580
S113158097F90895A0E1B0E0E8ECFAE00C943F0E7E
S11315907C011B016A01FC0117821682838181FF91
S11315A044C39E012F5F3F4F3901F7019381F1013D
S11315B093FD859193FF81911F01882309F431C321
S11315C0853239F493FD859193FF81911F01853212
S11315D039F4B70190E00E946B0F56016501E5CF25
S11315E010E0512C912CFFE1F915D8F08B3279F0F1
S11315F038F4803279F08332A1F4F92DF0612EC0F1
S11316008D3261F0803369F4292D21602DC0392D8C
S11316103260932E892D8460982E2AC0E92DE860CB
S113162015C097FC2DC020ED280F2A3088F496FEB3
S113163006C03AE0139F200D1124122F19C08AE02E
S1131640589E200D1124522EE92DE0629E2E10C0CA
S11316508E3231F496FCE5C2F92DF0649F2E08C059
S11316608C3621F4292D2068922E02C0883641F44C
S1131670F10193FD859193FF81911F018111B3CFF6
S11316809BEB980F933020F4992D9061805E07C0F6
S11316909BE9980F933008F066C1992D9F7E96FFC1
S11316A016E09F73992E853619F49064992E08C01C
S11316B0863621F4392F3068932E02C0111111504F
S11316C097FE07C01C3350F444244394410E27E092
S11316D00BC0183038F027E017E005C027E09CE382
S11316E0492E02C0212F412C560184E0A80EB11CC2
S11316F0F6016081718182819381042DA3010E948E
S1131700760E6C01F981FC87F0FF02C0F3FF06C07E
S113171091FC06C092FE06C000E205C00DE203C0C3
S11317200BE201C000E08C858C7019F001115AC2E3
S11317309BC297FE10C04C0CFC85F4FF04C08A8148
S1131740813309F44A94141474F528E0241578F5C7
S113175088E0482E2CC096FC2AC0812F90E08C157E
S11317609D059CF03CEFC3163FEFD30674F0892D22
S11317708068982E0AC0E2E0F0E0EC0FFD1FE10F54
S1131780F11D8081803319F411501111F4CF97FEAB
S11317900EC044244394410E812F90E0C816D9060C
S11317A02CF41C1904C04424439401C010E097FE97
S11317B006C01C141D0434F4C601019605C085E05E
S11317C090E002C081E090E001110196112331F014
S11317D0212F30E02F5F3F4F820F931F252D30E0E4
S11317E08217930714F4581A01C0512C892D89705B
S11317F049F4552039F0B70180E290E00E946B0F64
S11318005A94F7CF002329F0B701802F90E00E946B
S11318106B0F93FC09C0552039F0B70180E390E0C9
S11318200E946B0F5A94F7CF97FE4CC04601D7FE27
S113183002C0812C912CC60188199909F301E80F83
S1131840F91FFE87ED87960124193109388B2F87FC
S1131850012F10E01195019511093FEF83169306AE
S113186029F4B7018EE290E00E946B0FC814D904EA
S11318704CF08F8598898815990524F4ED85FE85AB
S1131880818101C080E3F1E08F1A91082D853E85A6
S11318902F5F3F4F3E872D87801691062CF0B701AE
S11318A090E00E946B0FD9CFC814D90441F49A81F7
S11318B0963320F4953319F43C8534FF81E3B70162
S11318C090E04EC08A81813319F09C859F7E9C876D
S11318D0B70190E00E946B0F111105C094FC18C071
S11318E085E690E017C0B7018EE290E00E946B0F8E
S11318F01E5F82E001E0080FF301E80FF11D808113
S1131900B70190E00E946B0F802F0113F3CFE6CF55
S113191085E490E0B7010E946B0FD7FC06C0C114A8
S1131920D10441F4EC85E4FF05C0D194C194D108FD
S11319308DE201C08BE2B70190E00E946B0F80E35F
S11319402AE0C216D1042CF08F5FFAE0CF1AD10836
S1131950F7CFB70190E00E946B0FB701C601C096A4
S11319600E946B0F54C1833631F0833779F083358D
S113197009F056C020C0560132E0A30EB11CF60196
S11319808081898301E010E0630112C05601F2E016
S1131990AF0EB11CF601C080D18096FE03C0612F4A
S11319A070E002C06FEF7FEFC6010E94600F8C01F0
S11319B0F92DFF7714C0560122E0A20EB11CF601E6
S11319C0C080D18096FE03C0612F70E002C06FEF2B
S11319D07FEFC6010E944E0F8C01F92DF0689F2EF7
S11319E0F3FD1AC0852D90E008171907A8F4B70174
S11319F080E290E00E946B0F5A94F4CFF60197FCBA
S1131A00859197FE81916F01B70190E00E946B0F61
S1131A1051105A94015011090115110579F7F7C0B5
S1131A20843611F0893661F5560197FE09C024E029
S1131A30A20EB11CF60160817181828193810AC07A
S1131A40F2E0AF0EB11CF60160817181072E000C2B
S1131A50880B990BF92DFF769F2E97FF09C090955F
S1131A608095709561957F4F8F4F9F4FF0689F2EA3
S1131A702AE030E0A3010E941610C82EC6183FC009
S1131A80092D853721F40F7E2AE030E01DC0097F3F
S1131A908F3691F018F4883559F0C3C0803719F0A7
S1131AA0883711F0BEC0006104FF09C0046007C09C
S1131AB094FE08C0066006C028E030E005C020E1BE
S1131AC030E002C020E132E0560107FF09C084E0A3
S1131AD0A80EB11CF601608171818281938108C0D6
S1131AE0F2E0AF0EB11CF6016081718180E090E0FC
S1131AF0A3010E941610C82EC6180F77902E96FECA
S1131B000BC0092D0E7FC11650F494FE0AC092FC3E
S1131B1008C0092D0E7E05C0DC2C092D03C0DC2C69
S1131B2001C0D12E04FF0DC0FE01EC0DF11D80811A
S1131B30803311F4097E09C002FF06C0D394D39404
S1131B4004C0802F867809F0D39403FD11C000FFF0
S1131B5006C01C2DD51480F4150D1D190DC0D51407
S1131B6058F4B70180E290E00E946B0FD394F7CF52
S1131B70D51410F45D1801C0512C04FF10C0B70136
S1131B8080E390E00E946B0F02FF17C001FD03C0C9
S1131B9088E790E002C088E590E0B7010CC0802F90
S1131BA0867859F001FF02C08BE201C080E207FD94
S1131BB08DE2B70190E00E946B0FC11638F4B701B3
S1131BC080E390E00E946B0F1150F7CFCA94F301A9
S1131BD0EC0DF11D8081B70190E00E946B0FC110E4
S1131BE0F5CF15C0F4E0F51560F584E0581A93FEBE
S1131BF01FC0011127C02C8523FF2AC004EB10E06D
S1131C00392D3071932EF8018491811124C055200F
S1131C1009F4E4CCB70180E290E00E946B0F5A947F
S1131C20F6CFF7018681978126C08FEF9FEF23C0FF
S1131C30B70180E290E00E946B0F5A945110F8CFE4
S1131C40D8CF512CB701802F90E00E946B0FD3CFD7
S1131C5008EB10E0D5CF91108052B70190E00E94BC
S1131C606B0F0F5F1F4FCFCF23E0251510F483E0D8
S1131C70BDCF512CC0CF6096E2E10C945B0E2F9245
S1131C803F924F925F926F927F928F929F92AF9208
S1131C90BF92CF92DF92EF92FF920F931F93CF9355
S1131CA0DF93CDB7DEB7CA1BDB0B0FB6F894DEBFEC
S1131CB00FBECDBF09942A88398848885F846E8412
S1131CC07D848C849B84AA84B984C884DF80EE805C
S1131CD0FD800C811B81AA81B981CE0FD11D0FB665
S1131CE0F894DEBF0FBECDBFED010895283008F093
S1131CF027E03327DA01990F311D87FD91600096A3
S1131D006105710539F432602E5F3D9330E32A9505
S1131D10E1F708959F3F30F080387105610509F0BF
S1131D203C5F3C5F3D93913008F08068911DDF93E8
S1131D30CF931F930F93FF92EF92192F987F96954D
S1131D40E92F96959695E90FFF27EA5EFE4F9927AE
S1131D503327EE24FF24A701E70105900894079494
S1131D6028F4360FE71EF81E491F511D660F771F12
S1131D70881F991F0694A1F70590079428F4E70E8D
S1131D80F81E491F561FC11D770F881F991F661F14
S1131D900694A1F70590079428F4F80E491F561FDE
S1131DA0C71FD11D880F991F661F771F0694A1F7BF
S1131DB00590079420F4490F561FC71FD81F990F89
S1131DC0661F771F881F0694A9F7849110951770D2
S1131DD041F0D695C79557954795F794E7941A958A
S1131DE0C1F7ECEBF0E0689415901591359165918D
S1131DF0959105907FE27395E118F10A430B560B18
S1131E00C90BD009C0F7E10CF11E431F561FC91FAF
S1131E10D01D7EF4703311F48A95E6CFE894015016
S1131E2030F0080F0AF40027021708F4202F239536
S1131E30022F7A3328F079E37D932A95E9F710C0CD
S1131E407D932A9589F60694979567953795179506
S1131E501794E118F10A430B560BC90BD00998F0FB
S1131E6023957E9173957A3308F070E37C93201365
S1131E70B8F77E9170617D9330F0839571E37D9323
S1131E8070E32A95E1F71124EF90FF900F911F91D1
S1131E90CF91DF91992787FD90950895FC010590D6
S1131EA0615070400110D8F7809590958E0F9F1F58
S1131EB00895DC0101C06D9341505040E0F708954E
S1131EC0FC016150704001900110D8F78095909505
S1131ED08E0F9F1F08950F931F93CF93DF93FB01E2
S1131EE0238121FD03C08FEF9FEF2CC022FF16C07A
S1131EF046815781248135814217530744F4A081D8
S1131F00B1819D012F5F3F4F318320838C932681C4
S1131F1037812F5F3F4F3783268314C08B01EC0139
S1131F20FB010084F185E02D0995892BE1F6D801A8
S1131F3016968D919C911797019617969C938E9364
S1131F401697CE01DF91CF911F910F910895A0E0D4
S1131F50B0E0EDEAFFE00C944F0EAE014B5F5F4F33
S1131F60FA0161917191AF0180910A0490910B047F
S1131F700E94C20AE2E00C946B0E60910A04709114
S1131F800B040E946B0F08950F931F93CF93DF935D
S1131F90E0910A04F0910B04238121FF1BC08C0102
S1131FA0D0E0C0E0F80181918F0160910A04709142
S1131FB00B04DB011896ED91FC911997882331F0FD
S1131FC00995892B79F3DFEFCFEFECCF8AE0099500
S1131FD0892B19F08FEF9FEF02C08D2F9C2FDF917B
S1131FE0CF911F910F910895AEE0B0E0EAEFFFE0CA
S1131FF00C944D0E0D891E8986E08C831A83098307
S11320008FEF9FE79E838D83AE01475E5F4F6F899D
S1132010788DCE0101960E94C20AEF81F885E00F07
S1132020F11F10822E96E4E00C94690EFA01AA279F
S1132030283051F1203181F1E8946F936E7F6E5F07
S11320407F4F8F4F9F4FAF4FB1E03ED0B4E03CD0B5
S1132050670F781F891F9A1FA11D680F791F8A1F98
S1132060911DA11D6A0F711D811D911DA11D20D0FF
S113207009F468943F912AE0269F11243019305DB9
S11320803193DEF6CF010895462F4770405D4193AA
S1132090B3E00FD0C9F7F6CF462F4F70405D4A33F7
S11320A018F0495D31FD4052419302D0A9F7EACFBF
S11320B0B4E0A6959795879577956795BA95C9F7EE
S11320C000976105710508959B01AC010A2E0694E1
S11320D05795479537952795BA95C9F7620F731F9A
S10F20E0841F951FA01D0895F894FFCFE5
S11320EC00000002000000001C0200000000546507
S11320FC737400496E697469616C697A6174696F8F
S113210C6E20436F6D706C657465210A00506F6CA2
S113211C6C696E672073656E736F72732100252E64
S113212C3266206B50610A006572726F722065789A
S113213C65637574696E672077616B655F7570286C
S113214C293A2025690A006572726F7220657865D8
S113215C637574696E67207265696E697428293AAF
S113216C2025690A006572726F7220657865637543
S113217C74696E672073746172745F706572696FD1
S113218C6469635F6D6561737572656D656E7428E2
S113219C293A2025690A004D6561737572656D6570
S11321AC6E747320537461727465642E0D0A00414D
S11321BC4443206973206E6F77206F66660A005360
S11321CC656E74200020746F20484D313000484DEA
S11321DC313020526573706F6E73653A20000D0AAE
S11321EC0041540041542B414444523F0041542B70
S11321FC4E414D455363656E655F5361666531327F
S113220C330041542B524F4C453000400053746101
S113221C7274696E672073707333302070726F62DE
S113222C652E2E2E005350532073656E736F7220DF
S113223C70726F62696E67206661696C65640053C5
S113224C50532073656E736F722070726F62696E77
S113225C67207375636365737366756C006572725E
S113226C6F722072656164696E67206669726D773E
S113227C6172652076657273696F6E0046573A20F9
S113228C25752E25750A006572726F722072656150
S113229C64696E672073657269616C206E756D621A
S11322AC65720053657269616C204E756D6265725E
S11322BC3A2025730A006572726F7220696E697414
S11322CC696174696E672066616E20636C65616E0A
S11322DC696E670046616E20636C65616E6564218E
S11322EC0045787472656D65204E65676174697616
S11322FC652050726573737572650A004578747243
S113230C656D6520506F73697469766520507265CC
S113231C73737572650A003078256C6C780A0052F8
S113232C656365697665643A2025630A00427566BF
S113233C6665722066756C6C2C20636C65617269C1
S113234C6E672E2E2E0042756666657220636F6E64
S113235C74656E74206265666F726520636C65616A
S113236C723A200053746174757320213D203078C7
S107237C30380000F1
S9030000FC
