S01D000053656E696F722044657369676E2053656E736F72732E7372656310
S11300000C94DB000C94F8000C94F8000C94F800A9
S11300100C94F8000C94F8000C94F8000C94F8007C
S11300200C94F8000C94F8000C94F8000C94F8006C
S11300300C94F8000C94F8000C94F8000C94F8005C
S11300400C94F8000C94F8000C94F8000C94F8004C
S11300500C94F8000C94F8000C94F8000C94F8003C
S11300600C94F8000C94F8000C94F8000C94F8002C
S11300700C94DA040C94F8000C94F8000C94F80036
S11300800C94F8000C94F8000C94F8000C94F8000C
S11300900C94F8000C94F8000C94F8000C94F800FC
S11300A00C94F8000C94F8000C94F8000C94F800EC
S11300B00C94F8006E616E00696E660000407A1060
S11300C0F35A00A0724E18090010A5D4E80000E805
S11300D07648170000E40B54020000CA9A3B000063
S11300E000E1F505000080969800000040420F00F2
S11300F00000A08601000000102700000000E803B3
S1130100000000006400000000000A00000000007D
S11301100100000000002C76D888DC674F0823DF3C
S1130120C1DFAE59E1B1B796E5E3E453C63AE6510F
S1130130997696E8E6C28426EB898C9B62ED407C36
S11301406FFCEFBC9C9F40F2BAA56FA5F490055AD2
S11301502AF75C936B6CF9676DC11BFCE0E40D47F7
S1130160FEF520E6B500D0ED902E0300943577051A
S11301700080841E080000204E0A000000C80C33D2
S11301803333330F986E12831141EF8D2114893B61
S1130190E65516CFFEE6DB18D1844B381BF77C1DE1
S11301A0901DA4BBE424203284725E228100C9F134
S11301B024ECA1E53D2711241FBECFEFD8E0DEBF1C
S11301C0CDBF15E0A0E0B1E0E0E9F7E202C00590A0
S11301D00D92A836B107D9F725E0A8E6B5E001C02D
S11301E01D92A13EB207E1F70E94BB020C94C61314
S11301F00C940000E0ECF0E0908195FFFDCF80933B
S1130200C60080E090E008951092C50087E68093D0
S1130210C400E1ECF0E0808188618083E2ECF0E0EE
S11302208081866080830895ECEAF0E080818F7B92
S11302308083E4E6F0E080818F7E8083239A249893
S11302401092CD0087E68093CC00E9ECF0E0808149
S113025088698083EAECF0E0808186608083808115
S11302608F7380830895E8ECF0E0908195FFFDCFD3
S11302708093CE000895CF93DF93EC018EE091E05C
S11302809F938F930E941B1388810F900F90882354
S113029049F090E00E94311389910E9433018881D2
S11302A08111F7CF85E191E00E943813DF91CF915E
S11302B0089580E4E3E7F5E0DF011D928A95E9F70C
S11302C0109268050895CF93DF938EE191E09F9398
S11302D08F930E941B130F900F90C0E0D0E0FE019B
S11302E0ED58FA4F8081882339F0FE01ED58FA4F1A
S11302F0808190E00E9431132196C034D10579F7B2
S113030089E193E00E943813DF91CF910895CF9350
S1130310DF938EE291E00E94381380E491E00E9422
S11303203B010E9463010E94590160E874E88EE178
S113033090E00E940908C3E7D5E00AC080E491E098
S11303400E943B0160E874E88EE190E00E94090895
S113035088818F3499F789818B3481F70E946301F6
S11303600E94590160E874E88EE190E00E94090857
S113037089E491E00E943B010E9463010E945901BB
S11303808BE591E00E943B0160E874E88EE190E027
S11303900E9409080E9463010E94590184E691E0C9
S11303A00E943B0160E874E88EE190E00E94090835
S11303B00E9463010E945901DF91CF910895CF9368
S11303C0DF93CDB7DEB7A2970FB6F894DEBF0FBEAA
S11303D0CDBF8DE691E00E9438130AC085E891E014
S11303E00E94381360E472E48FE090E00E940908F0
S11303F00E94EA07892B91F78FE991E00E94381354
S1130400BE016E5F7F4FCE0101960E94E406892BE8
S113041029F08DEB91E00E94381312C08A811F925B
S11304208F9389811F928F938CED91E09F938F938B
S11304300E941B130F900F900F900F900F900F902E
S1130440CE0103960E940807892B29F087EE91E0DC
S11304500E9438130EC0CE0103969F938F9383E0BE
S113046092E09F938F930E941B130F900F900F9015
S11304700F90A2960FB6F894DEBF0FBECDBFDF91EA
S1130480CF910895EAE7F0E08081806880838081DD
S11304908760808380E480937C0038980895EAE73D
S11304A0F0E0808180648083808186FDFDCF80912F
S11304B078002091790090E0922B0895CF92DF92FA
S11304C0EF92FF92BC0180E090E00E94C90C20E012
S11304D030EC4FE754E40E94280C20E030E040EA7E
S11304E050E40E94800D20E030E040E250E40E949D
S11304F0B60B2DEC3CEC4CE45DE30E94280C6B0144
S11305007C0120E030E040E252EC0E94230C88237E
S11305108CF486E192E09F938F930E941B130F90BB
S11305200F900F2EC12CD12CF0E2EF2EF2ECFF2E07
S1130530F02D1AC020E030E040E252E4C701B601D9
S11305400E947B0D181684F480E392E09F938F93AE
S11305500E941B130F900F900F2EC12CD12CF0E290
S1130560EF2EF2E4FF2EF02DC701B601FF90EF90BD
S1130570DF90CF900895CF92DF92EF92FF920F9386
S11305801F93CF93DF93CDB7DEB72B970FB6F894B5
S1130590DEBF0FBECDBF0E94040180E091E09093C6
S11305A0DE058093DD050E94140178940E940308FF
S11305B00E94DF010E9442020E94870182E60E949B
S11305C0570A2FEF86E791E0215080409040E1F7F1
S11305D000C000008AE492E00E9438130E949E0B3F
S11305E0009761F09F938F9384E692E09F938F939B
S11305F00E941B130F900F900F900F900E940B0BF3
S1130600009761F09F938F9383E892E09F938F9379
S11306100E941B130F900F900F900F900E94800B5D
S1130620009761F09F938F9384EB92E09F938F9355
S11306300E941B130F900F900F900F900E945A0A64
S11306408C01009779F01F938F9382ED92E09F9332
S11306508F930E941B130F900F900F900F90802F79
S1130660912F99C184E093E00E94381319821B8270
S11306701A821C821D821E821F82188619861A867F
S11306801B86EFEFF3E224EFE150F0402040E1F766
S113069000C00000CE0101960E94600B009739F162
S11306A09F938F938CE193E09F938F930E941B13EE
S11306B00F900F900F900F908BC08FEF93E2E4EFA9
S11306C081509040E040E1F700C00000CE01019667
S11306D00E94600B009769F09F938F931F930F9371
S11306E00E941B130F900F900F900F9002C00CE10B
S11306F013E08981882309F3AE01485F5F4FBE018F
S11307006C5F7F4FCE0102960E94B80A009769F091
S11307109F938F9389E493E09F938F930E941B137D
S11307200F900F900F900F9053C06C817D818E813C
S11307309F810F2EF8EECF2EF3E0DF2EE12CF12C6B
S1130740F02DA70196010E948C112C833D834E83CA
S11307505F83688579858A859B85A70196010E94B8
S11307606A11288739874A875B8781E793E00E946B
S113077038138B818F938A818F9381E893E09F93C1
S11307808F930E941B138F818F938E818F938D8102
S11307908F938C818F938EE993E09F938F930E9424
S11307A01B138B858F938A858F9389858F93888577
S11307B08F938AEB93E09F938F930E941B138FEC8C
S11307C093E00E9438130FB6F894DEBF0FBECDBF7E
S11307D00E944F020E945E02162F072FF82EE92E68
S11307E085E094E00E943813EF92FF920F931F93D9
S11307F08FE194E09F938F930E941B138FEC93E0FF
S11308000E9438130E941F070F900F900F900F90B3
S11308100F900F90992324F483E394E00E943813FB
S11308208EE494E00E94381360E472E48FE090E078
S11308300E94090883EB95E00E94430799233CF446
S11308408EE594E00E94381380E090E0A4C003EBAE
S113085015E0F80183818F9382818F9381818F9337
S113086080818F9388E794E09F938F930E941B135A
S1130870F80187818F9386818F9385818F938481FB
S11308808F9384E894E09F938F930E941B13F80145
S113089083858F9382858F9381858F9380858F93B2
S11308A080E994E09F938F930E941B13F80187853E
S11308B08F9386858F9385858F9384858F938CE919
S11308C094E09F938F930E941B13F80183898F9365
S11308D082898F9381898F9380898F9389EA94E0A9
S11308E09F938F930E941B13F80187898F938689A6
S11308F08F9385898F9384898F9385EB94E09F935D
S11309008F930E941B130FB6F894DEBF0FBECDBFAA
S1130910F801838D8F93828D8F93818D8F93808D3A
S11309208F9381EC94E09F938F930E941B13F801A3
S1130930878D8F93868D8F93858D8F93848D8F93E1
S11309408DEC94E09F938F930E941B13F80183A175
S11309508F9382A18F9381A18F9380A18F9389ED2F
S113096094E09F938F930E941B13F80187A18F93A8
S113097086A18F9385A18F9384A18F9386EE94E0B3
S11309809F938F930E941B130FB6F894DEBF0FBE84
S1130990CDBF80E090E02B960FB6F894DEBF0FBE7B
S11309A0CDBFDF91CF911F910F91FF90EF90DF901A
S11309B0CF9008951F920F920FB60F9211242F9388
S11309C03F934F935F936F937F938F939F93AF93D3
S11309D0BF93EF93FF939091CE00809168058F337E
S11309E060F4E0916805F0E0ED58FA4F908380914F
S11309F068058F5F809368050AC08AE095E09F933D
S1130A008F930E941B130E9459010F900F90FF9126
S1130A10EF91BF91AF919F918F917F916F915F9172
S1130A204F913F912F910F900FBE0F901F901895EB
S1130A30FC01208130E0322F22278181A901482B3B
S1130A40CA010895FC0120816181862F90E0A0E015
S1130A50B0E0DC0199278827B22B2381822B2281E5
S1130A60BC01CD01722B08950E94220508956115E1
S1130A707105A1F0FC01680F791F8FEF21E39191BB
S1130A80892798E088231CF4880F822701C0880FE7
S1130A909150C1F7E617F70791F708958FEF08957E
S1130AA0CF93C42F0E94370591E08C1301C090E0CE
S1130AB0892F8195CF910895EF92FF920F931F9301
S1130AC0CF93DF93EC0178836983222301F1E22E33
S1130AD02296042F152FF12CF801818188838081BF
S1130AE00E5F1F4F898362E070E0CE010E943705DC
S1130AF08A83F3942396EF10EFCFEA948E2D90E03F
S1130B009C01220F331F820F931F059602C082E0BF
S1130B1090E0DF91CF911F910F91FF90EF90089596
S1130B206F927F928F929F92AF92BF92CF92DF92F9
S1130B30EF92FF920F931F93CF93DF93CDB7DEB75E
S1130B40C054D1090FB6F894DEBF0FBECDBFC62E78
S1130B50D72E4A01880C991C840E951EA401BE014F
S1130B606F5F7F4F0E948609082F082E000C110B1F
S1130B700115110531F48114910491F480E090E0A1
S1130B804AC01F938F9383E295E09F938F930E94B3
S1130B901B130F900F900F900F90802F912F3BC03D
S1130BA08E010F5F1F4FEC2CFD2CC12CD12C0F2E6E
S1130BB0FEE36F2EF5E07F2EF02D5801F8014281FF
S1130BC062E070E0C8010E945005282F082E000C36
S1130BD0330B2115310551F03F938F937F926F9220
S1130BE00E941B130F900F900F900F90F5018081BE
S1130BF0F7018083F5018181F7018183F3E0CF0E52
S1130C00D11C0D5F1F4F82E0E80EF11CC814D904FB
S1130C10A0F280E090E0C05CDF4F0FB6F894DEBF36
S1130C200FBECDBFDF91CF911F910F91FF90EF9039
S1130C30DF90CF90BF90AF909F908F907F906F90F8
S1130C4008950F931F93CF93DF938B01EA010E94C2
S1130C5090050097E1F42097C1F0E0E0F0E020E097
S1130C60EE0FFF1FE00FF11F808190E0982F88277F
S1130C703181832B918380832F5FE22FF0E0EC1787
S1130C80FD0770F380E090E002C080E090E0DF9127
S1130C90CF911F910F9108951F93CF93DF9300D0AD
S1130CA0CDB7DEB7182F20E040E050E0CE0101962A
S1130CB00E945C0542E050E0BE016F5F7F4F812FD0
S1130CC00E949A09082E000C990B0F900F90DF9147
S1130CD0CF911F9108951F93CF93DF93CDB7DEB7C4
S1130CE0A0970FB6F894DEBF0FBECDBF182FCE016C
S1130CF001960E945C05AC01BE016F5F7F4F812F9E
S1130D000E949A09082E000C990BA0960FB6F8942D
S1130D10DEBF0FBECDBFDF91CF911F9108958F929B
S1130D209F92AF92BF92DF92EF92FF920F931F9325
S1130D30CF93DF9300D0CDB7DEB7D82E49015A0147
S1130D4020E040E050E0CE0101960E945C0542E0C4
S1130D5050E0BE016F5F7F4F8D2D0E949A09282FAE
S1130D60880F330B2115310579F481149104A10402
S1130D70B10421F0C501B4010E940908A701B8011A
S1130D808D2D0E94210602C0822F932F0F900F9069
S1130D90DF91CF911F910F91FF90EF90DF90BF9063
S1130DA0AF909F908F900895EF92FF920F931F93AF
S1130DB079018A0120E030E0A9010E948F061F9189
S1130DC00F91FF90EF900895EF92FF920F931F936E
S1130DD0CF93DF9300D0CDB7DEB77C018B0121E048
S1130DE030E0AE014F5F5F4F60E071ED89E60E9435
S1130DF0D40629813A81F7013083F80120830F90CA
S1130E000F90DF91CF911F910F91FF90EF90089574
S1130E10CF93DF93EC0163E370ED89E60E944C0607
S1130E209C01009741F440E150E0BE0189E60E9434
S1130E3090051F8E01C0932FDF91CF9108950F93DA
S1130E401F93CF93DF9300D0CDB7DEB780E093E05C
S1130E509A83898321E030E0AE014F5F5F4F60E108
S1130E6070E089E60E946B068C0160E27EE480E01B
S1130E7090E00E940908C8010F900F90DF91CF9174
S1130E801F910F910895EF92FF920F931F93CF93A9
S1130E90DF93CDB7DEB7A8970FB6F894DEBF0FBEC9
S1130EA0CDBF8C0160E073E089E60E944C06009798
S1130EB009F06AC044E150E0BE016F5F7F4F89E6EC
S1130EC00E9490057C01009709F05DC0CE01019657
S1130ED00E943405F8016083718382839383CE0179
S1130EE005960E943405F80164837583868397838D
S1130EF0CE0109960E943405F801608771878287C4
S1130F009387CE010D960E943405F8016487758796
S1130F1086879787CE0141960E943405F801608B3D
S1130F20718B828B938BCE0145960E943405F80118
S1130F30648B758B868B978BCE0149960E94340502
S1130F40F801608F718F828F938FCE014D960E942E
S1130F503405F801648F758F868F978FCE01819643
S1130F600E943405F80160A371A382A393A3CE0168
S1130F7085960E943405F80164A375A386A397A3FC
S1130F808E2D9F2D01C09F2DA8960FB6F894DEBF1D
S1130F900FBECDBFDF91CF911F910F91FF90EF90C6
S1130FA00895CF93DF9363E071E189E60E944C06D4
S1130FB063E071E189E60E944C06EC01892B31F46F
S1130FC068E873E180E090E00E940908CE01DF91B7
S1130FD0CF910895CF93DF93CDB7DEB7A0970FB627
S1130FE0F894DEBF0FBECDBF0E94D107CE0101969B
S1130FF00E940807A0960FB6F894DEBF0FBECDBFBF
S1131000DF91CF9108951092B90089E48093B800DC
S113101008954F925F926F927F928F929F92AF92B8
S1131020BF92CF92DF92EF92FF92CF930E94C90CAE
S11310306B017C012BEA3AEA4AEA50E40E94800DF3
S11310404B015C0120E030E040E85FE30E94230CA8
S113105088230CF470C020E030E040E850E4C7017D
S1131060B6010E94800D2B013C0120E03FEF4FE7C9
S113107057E40E947B0D18160CF045C020E030E0C8
S11310804AE754E4C701B6010E94280C4B015C01F5
S113109020E030E04AE755E40E94800D6B017C01BA
S11310A020E030E040E85FE30E94230C88232CF129
S11310B020E03FEF4FE757E4C701B6010E947B0DE4
S11310C01816B4F420E030E040E251E4C501B40164
S11310D00E94800D0E949A0C6115710569F120E946
S11310E031E0C9010197F1F761507109D1F724C0CA
S11310F0C701B6010E949A0C02C061E070E0CB0106
S11311000197F1F719C020E030E04FE753E4C5013F
S1131110B4010E947B0D181644F4C301B2010E946D
S11311209A0CCB010197F1F70AC0C501B4010E94E2
S11311309A0CC62F01C0C1E06C2F6A95F1F7CF91CC
S1131140FF90EF90DF90CF90BF90AF909F908F90E3
S11311507F906F905F904F900895CF92DF92FF92AF
S11311600F931F93CF93DF934115510509F4B0C03A
S113117094EA9093BC00ECEBF0E090819923ECF7B7
S1131180C091B900C87FC83031F089E595E00E946C
S113119038138C2FB3C0982F990F9093BB0094E809
S11311A09093BC00ECEBF0E090819923ECF79091E4
S11311B0B900987F983109F491C0903209F477C04E
S11311C0892F9CC09D91EB019883F0829081992393
S11311D0ECF7E6019881987F983229F0903309F46E
S11311E066C0892F8BC04150510961F76BC040E143
S11311F001C048E094EA9093BC00ECEBF0E09081ED
S11312009923ECF79091B900987F491355C0880F42
S113121081608093BB0084E88093BC00ECEBF0E039
S113122080818823ECF78091B900982F987F9034BF
S113123021F09834E1F1892F61C00130110521F1C9
S1131240D901ECEBF0E00F2EF4ECFF2EF02D49EB7E
S113125050E06BEB70E001501109F082808188232B
S1131260ECF7EA018881982F987F903539F511962B
S1131270EB018881ED0121978883CD01801B910BBF
S11312808217930751F701C0D90184E88093BC0009
S1131290ECEBF0E080818823ECF78091B900982F83
S11312A0987F983569F48091BB008C9390E084E931
S11312B08093BC00892F22C0892F20C0892F1EC093
S11312C0892F1CC00115110509F091CF90E0EFCFD3
S11312D00115110509F08DCF80E010C0A62FB72F9E
S11312E06BEB70E0ECEBF0E00F2EF4E8FF2EF02D4A
S11312F00F2EF9EBCF2ED12CF02D64CFDF91CF91AF
S11313001F910F91FF90DF90CF9008950F931F933B
S11313109B018A0140E050E060E070E089E60E94B1
S1131320AD0891E0811101C090E0892F81951F9152
S11313300F9108950F931F9300E010E020E030E038
S113134089E60E94AD0891E0811101C090E0892FE7
S113135081951F910F9108950F931F9300E010E062
S113136020E030E082E60E94AD0891E0811101C0E6
S113137090E0892F81951F910F9108950E94AC09E7
S1131380082E000C990B08950F931F939B01042FB3
S113139010E040E050E060E070E082E60E94AD08BA
S11313A091E0811101C090E0892F81951F910F91E7
S11313B00895FC01E60FF71F50834183CB01029689
S11313C0089561157105A1F0FC01680F791F8FEF75
S11313D021E39191892798E088231CF4880F8227C0
S11313E001C0880F9150C1F7E617F70791F70895E8
S11313F08FEF0895CF93C42F0E94E10991E08C13DD
S113140001C090E0892FCF910895CF92DF92EF929F
S1131410FF920F931F93CF93DF9340FD37C0E72EC6
S1131420F62E569547956A01CC0CDD1CC40ED51ECC
S11314304C2D0E94C409082E000C990B009771F5DD
S1131440C114D10431F10F2D1E2DCF2DDE2DE12C31
S1131450F12C4A8162E070E0CE010E94FA09282F43
S1131460880F330B21153105B9F48881F801808385
S113147089818183F3E0EF0EF11C23960E5F1F4FE9
S1131480EC14FD0430F380E090E008C084E090E0C8
S113149005C080E090E002C0822F932FDF91CF91AE
S11314A01F910F91FF90EF90DF90CF90089580935C
S11314B06905089541EB51E260E070E08AE695E049
S11314C00E94D909AC016AE675E0809169050E9421
S11314D0BE090895CF92DF92EF92FF920F931F936C
S11314E0CF93DF937C018B01EA0145E05CEE60E081
S11314F070E08AE695E00E94D909AC016AE675E0DD
S1131500809169050E94BE09009749F568EE73E071
S113151080E090E00E94090846E050E06AE675E049
S1131520809169050E94050A6C010097B9F48AE666
S113153095E00E941805F701918380838CE695E07D
S11315400E941805F801918380838EE695E00E943D
S11315501805998388838C2D9D2D01C09D2DDF91C5
S1131560CF911F910F91FF90EF90DF90CF9008954E
S1131570EF92FF920F931F93CF93DF9300D000D08D
S1131580CDB7DEB77B018A01AE014D5F5F4FBE016F
S11315906F5F7F4F0E946A0AAC01892B81F5298114
S11315A03A81A3E7B5E50E94AB11DC01CB01072E1C
S11315B07DE0B595A795979587957A95D1F7702D88
S11315C0885C9F4AA109B109F70180839183A283B2
S11315D0B3832B813C81A4EDB0E30E94AB11DC0109
S11315E0CB01072E7DE0B595A795979587957A95BC
S11315F0D1F7702DF80180839183A283B383CA014C
S11316000F900F900F900F90DF91CF911F910F913A
S1131610FF90EF900895CF93DF9346E85FE360E097
S113162070E08AE695E00E94D909AC016AE675E0AB
S1131630809169050E94BE09EC01892B31F460E2B6
S113164071EA8FEF9FEF0E940908CE01DF91CF91DD
S113165008950F931F93CF93DF938C0148EB54EEBF
S113166060E070E08AE695E00E94D909AC016AE680
S113167075E0809169050E94BE090097E1F468EE67
S113168073E080E090E00E94090842E050E06AE6DE
S113169075E0809169050E94050AEC01009751F4F8
S11316A08AE695E00E941805F801918380838C2FC7
S11316B09D2F01C09D2FDF91CF911F910F91089510
S11316C00F931F93CF93DF9300D0CDB7DEB78C0178
S11316D01A821982CE0101960E94290B009749F4BF
S11316E029813A81377041E0232B09F440E0F80165
S11316F040830F900F90DF91CF911F910F91089528
S1131700CF93DF9346E456E360E070E08AE695E029
S11317100E94D909AC016AE675E0809169050E94CE
S1131720BE09EC01892B31F460E375E780E090E0B9
S11317300E940908CE01DF91CF91089546EF56E348
S113174060E070E08AE695E00E94D909AC016AE69F
S113175075E0809169050E94BE0960E375E780E049
S113176090E00E94090880E090E008955058BB275B
S1131770AA270E94CE0B0C94410D0E94330D38F021
S11317800E943A0D20F039F49F3F19F426F40C948A
S1131790300D0EF4E095E7FB0C942A0DE92F0E941E
S11317A0520D58F3BA17620773078407950720F0A0
S11317B079F4A6F50C94740D0EF4E0950B2EBA2F63
S11317C0A02D0B01B90190010C01CA01A001112443
S11317D0FF27591B99F0593F50F4503E68F11A16EF
S11317E0F040A22F232F342F4427585FF3CF469580
S11317F037952795A795F0405395C9F77EF41F16A2
S1131800BA0B620B730B840BBAF09150A1F0FF0F6B
S1131810BB1F661F771F881FC2F70EC0BA0F621F57
S1131820731F841F48F4879577956795B795F79547
S11318309E3F08F0B0CF9395880F08F09927EE0FDC
S11318409795879508950E94060D08F481E0089500
S11318500E943C0C0C94410D0E943A0D58F00E94D9
S1131860330D40F029F45F3F29F00C942A0D5111F7
S11318700C94750D0C94300D0E94520D68F399234D
S1131880B1F3552391F3951B550BBB27AA27621778
S11318907307840738F09F5F5F4F220F331F441F85
S11318A0AA1FA9F335D00E2E3AF0E0E832D09150B9
S11318B05040E695001CCAF72BD0FE2F29D0660FA6
S11318C0771F881FBB1F261737074807AB07B0E8E9
S11318D009F0BB0B802DBF01FF2793585F4F3AF0EF
S11318E09E3F510578F00C942A0D0C94750D5F3FC2
S11318F0E4F3983ED4F3869577956795B795F79575
S11319009F5FC9F7880F911D9695879597F908955C
S1131910E1E0660F771F881FBB1F621773078407F8
S1131920BA0720F0621B730B840BBA0BEE1F88F707
S1131930E09508950E945A0D88F09F5798F0B92FAA
S11319409927B751B0F0E1F0660F771F881F991FF0
S11319501AF0BA95C9F714C0B13091F00E94740D11
S1131960B1E008950C94740D672F782F8827B85F21
S113197039F0B93FCCF3869577956795B395D9F748
S11319803EF490958095709561957F4F8F4F9F4F52
S11319900895E89409C097FB3EF49095809570955E
S11319A061957F4F8F4F9F4F9923A9F0F92F96E9A7
S11319B0BB279395F695879577956795B795F1111C
S11319C0F8CFFAF4BB0F11F460FF1BC06F5F7F4FB9
S11319D08F4F9F4F16C0882311F096E911C07723CB
S11319E021F09EE8872F762F05C0662371F096E8D4
S11319F0862F70E060E02AF09A95660F771F881FA3
S1131A00DAF7880F9695879597F90895990F000846
S1131A10550FAA0BE0E8FEEF16161706E807F907BC
S1131A20C0F012161306E407F50798F0621B730B57
S1131A30840B950B39F40A2661F0232B242B252BD8
S1131A4021F408950A2609F4A140A6958FEF811D7B
S1131A50811D089597F99F6780E870E060E008951C
S1131A609FEF80EC089500240A94161617061806B2
S1131A700906089500240A9412161306140605068E
S1131A800895092E0394000C11F4882352F0BB0F1F
S1131A9040F4BF2B11F460FF04C06F5F7F4F8F4F82
S1131AA09F4F089557FD9058440F551F59F05F3FBD
S1131AB071F04795880F97FB991F61F09F3F79F06C
S1131AC087950895121613061406551FF2CF4695EE
S1131AD0F1DF08C0161617061806991FF1CF869570
S1131AE07105610508940895E894BB276627772754
S1131AF0CB0197F908950E94060D08F48FEF08951D
S1131B000E94930D0C94410D0E94330D38F00E94F5
S1131B103A0D20F0952311F00C942A0D0C94300DFD
S1131B2011240C94750D0E94520D70F3959FC1F30E
S1131B30950F50E0551F629FF001729FBB27F00D77
S1131B40B11D639FAA27F00DB11DAA1F649F6627CC
S1131B50B00DA11D661F829F2227B00DA11D621F1B
S1131B60739FB00DA11D621F839FA00D611D221FD5
S1131B70749F3327A00D611D231F849F600D211DB9
S1131B80822F762F6A2F11249F5750409AF0F1F03C
S1131B9088234AF0EE0FFF1FBB1F661F771F881FA5
S1131BA091505040A9F79E3F510580F00C942A0DA6
S1131BB00C94750D5F3FE4F3983ED4F386957795C6
S1131BC06795B795F795E7959F5FC1F7FE2B880F4B
S1131BD0911D9695879597F90895A0E1B0E0E3EFFC
S1131BE0FDE00C94BA117C011B016A01FC0117820F
S1131BF01682838181FF44C39E012F5F3F4F3901C9
S1131C00F7019381F10193FD859193FF81911F0168
S1131C10882309F431C3853239F493FD859193FF08
S1131C2081911F01853239F4B70190E00E94DF12DF
S1131C3056016501E5CF10E0512C912CFFE1F91517
S1131C40D8F08B3279F038F4803279F08332A1F411
S1131C50F92DF0612EC08D3261F0803369F4292DA5
S1131C6021602DC0392D3260932E892D8460982EE9
S1131C702AC0E92DE86015C097FC2DC020ED280F7F
S1131C802A3088F496FE06C03AE0139F200D1124F2
S1131C90122F19C08AE0589E200D1124522EE92DCE
S1131CA0E0629E2E10C08E3231F496FCE5C2F92D0E
S1131CB0F0649F2E08C08C3621F4292D2068922EC2
S1131CC002C0883641F4F10193FD859193FF81911F
S1131CD01F018111B3CF9BEB980F933020F4992D02
S1131CE09061805E07C09BE9980F933008F066C14D
S1131CF0992D9F7E96FF16E09F73992E853619F4D1
S1131D009064992E08C0863621F4392F3068932EBA
S1131D1002C01111115097FE07C01C3350F4442423
S1131D204394410E27E00BC0183038F027E017E049
S1131D3005C027E09CE3492E02C0212F412C560107
S1131D4084E0A80EB11CF6016081718182819381C7
S1131D50042DA3010E94F1116C01F981FC87F0FFAD
S1131D6002C0F3FF06C091FC06C092FE06C000E26A
S1131D7005C00DE203C00BE201C000E08C858C704D
S1131D8019F001115AC29BC297FE10C04C0CFC857D
S1131D90F4FF04C08A81813309F44A94141474F55D
S1131DA028E0241578F588E0482E2CC096FC2AC03B
S1131DB0812F90E08C159D059CF03CEFC3163FEFFE
S1131DC0D30674F0892D8068982E0AC0E2E0F0E012
S1131DD0EC0FFD1FE10FF11D8081803319F41150C8
S1131DE01111F4CF97FE0EC044244394410E812F69
S1131DF090E0C816D9062CF41C1904C0442443945A
S1131E0001C010E097FE06C01C141D0434F4C60182
S1131E10019605C085E090E002C081E090E00111E8
S1131E200196112331F0212F30E02F5F3F4F820FB5
S1131E30931F252D30E08217930714F4581A01C01C
S1131E40512C892D897049F4552039F0B70180E26D
S1131E5090E00E94DF125A94F7CF002329F0B701D3
S1131E60802F90E00E94DF1293FC09C0552039F0C6
S1131E70B70180E390E00E94DF125A94F7CF97FEF7
S1131E804CC04601D7FE02C0812C912CC601881992
S1131E909909F301E80FF91FFE87ED8796012419CC
S1131EA03109388B2F87012F10E011950195110905
S1131EB03FEF8316930629F4B7018EE290E00E9467
S1131EC0DF12C814D9044CF08F85988988159905B8
S1131ED024F4ED85FE85818101C080E3F1E08F1A51
S1131EE091082D853E852F5F3F4F3E872D878016B5
S1131EF091062CF0B70190E00E94DF12D9CFC814EC
S1131F00D90441F49A81963320F4953319F43C852D
S1131F1034FF81E3B70190E04EC08A81813319F028
S1131F209C859F7E9C87B70190E00E94DF1211116F
S1131F3005C094FC18C085E690E017C0B7018EE296
S1131F4090E00E94DF121E5F82E001E0080FF301BF
S1131F50E80FF11D8081B70190E00E94DF12802F0D
S1131F600113F3CFE6CF85E490E0B7010E94DF12BE
S1131F70D7FC06C0C114D10441F4EC85E4FF05C0CC
S1131F80D194C194D1088DE201C08BE2B70190E0F5
S1131F900E94DF1280E32AE0C216D1042CF08F5F86
S1131FA0FAE0CF1AD108F7CFB70190E00E94DF1210
S1131FB0B701C601C0960E94DF1254C1833631F0C6
S1131FC0833779F0833509F056C020C0560132E0DA
S1131FD0A30EB11CF6018081898301E010E0630146
S1131FE012C05601F2E0AF0EB11CF601C080D180E0
S1131FF096FE03C0612F70E002C06FEF7FEFC60151
S11320000E94D4128C01F92DFF7714C0560122E0EE
S1132010A20EB11CF601C080D18096FE03C0612FD0
S113202070E002C06FEF7FEFC6010E94C9128C01FD
S1132030F92DF0689F2EF3FD1AC0852D90E0081746
S11320401907A8F4B70180E290E00E94DF125A94C5
S1132050F4CFF60197FC859197FE81916F01B7014A
S113206090E00E94DF1251105A9401501109011599
S1132070110579F7F7C0843611F0893661F55601F8
S113208097FE09C024E0A20EB11CF60160817181A3
S1132090828193810AC0F2E0AF0EB11CF601608127
S11320A07181072E000C880B990BF92DFF769F2E5A
S11320B097FF09C090958095709561957F4F8F4FDC
S11320C09F4FF0689F2E2AE030E0A3010E9468131E
S11320D0C82EC6183FC0092D853721F40F7E2AE08B
S11320E030E01DC0097F8F3691F018F4883559F01F
S11320F0C3C0803719F0883711F0BEC0006104FFF7
S113210009C0046007C094FE08C0066006C028E049
S113211030E005C020E130E002C020E132E05601A9
S113212007FF09C084E0A80EB11CF601608171812B
S11321308281938108C0F2E0AF0EB11CF601608188
S1132140718180E090E0A3010E946813C82EC61834
S11321500F77902E96FE0BC0092D0E7FC11650F4FA
S113216094FE0AC092FC08C0092D0E7E05C0DC2C2A
S1132170092D03C0DC2C01C0D12E04FF0DC0FE01CB
S1132180EC0DF11D8081803311F4097E09C002FF3A
S113219006C0D394D39404C0802F867809F0D394D6
S11321A003FD11C000FF06C01C2DD51480F4150DCD
S11321B01D190DC0D51458F4B70180E290E00E94B7
S11321C0DF12D394F7CFD51410F45D1801C0512C4D
S11321D004FF10C0B70180E390E00E94DF1202FF09
S11321E017C001FD03C088E790E002C088E590E0D5
S11321F0B7010CC0802F867859F001FF02C08BE232
S113220001C080E207FD8DE2B70190E00E94DF1279
S1132210C11638F4B70180E390E00E94DF12115038
S1132220F7CFCA94F301EC0DF11D8081B70190E062
S11322300E94DF12C110F5CF15C0F4E0F51560F56A
S113224084E0581A93FE1FC0011127C02C8523FF78
S11322502AC004EB10E0392D3071932EF8018491DB
S1132260811124C0552009F4E4CCB70180E290E048
S11322700E94DF125A94F6CFF7018681978126C017
S11322808FEF9FEF23C0B70180E290E00E94DF123E
S11322905A945110F8CFD8CF512CB701802F90E029
S11322A00E94DF12D3CF08EB10E0D5CF91108052FB
S11322B0B70190E00E94DF120F5F1F4FCFCF23E0E2
S11322C0251510F483E0BDCF512CC0CF6096E2E118
S11322D00C94D611A1E21A2EAA1BBB1BFD010DC042
S11322E0AA1FBB1FEE1FFF1FA217B307E407F507C2
S11322F020F0A21BB30BE40BF50B661F771F881F9E
S1132300991F1A9469F760957095809590959B0133
S1132310AC01BD01CF010895052E97FB1EF4009476
S11323200E94A31157FD07D00E946A1107FC03D035
S11323304EF40C94A31150954095309521953F4F40
S11323404F4F5F4F089590958095709561957F4F9D
S11323508F4F9F4F0895A29FB001B39FC001A39FC9
S1132360700D811D1124911DB29F700D811D1124CA
S1132370911D08952F923F924F925F926F927F9298
S11323808F929F92AF92BF92CF92DF92EF92FF9281
S11323900F931F93CF93DF93CDB7DEB7CA1BDB0B2D
S11323A00FB6F894DEBF0FBECDBF09942A883988D2
S11323B048885F846E847D848C849B84AA84B984D9
S11323C0C884DF80EE80FD800C811B81AA81B981E5
S11323D0CE0FD11D0FB6F894DEBF0FBECDBFED01F9
S11323E00895283008F027E03327DA01990F311DCA
S11323F087FD916000966105710539F432602E5FA6
S11324003D9330E32A95E1F708959F3F30F08038FB
S11324107105610509F03C5F3C5F3D93913008F024
S11324208068911DDF93CF931F930F93FF92EF92D8
S1132430192F987F9695E92F96959695E90FFF2782
S1132440EA5EFE4F99273327EE24FF24A701E70114
S113245005900894079428F4360FE71EF81E491FC8
S1132460511D660F771F881F991F0694A1F70590C9
S1132470079428F4E70EF81E491F561FC11D770F55
S1132480881F991F661F0694A1F70590079428F4E6
S1132490F80E491F561FC71FD11D880F991F661FAD
S11324A0771F0694A1F70590079420F4490F561F4F
S11324B0C71FD81F990F661F771F881F0694A9F797
S11324C084911095177041F0D695C7955795479507
S11324D0F794E7941A95C1F7ECEBF0E06894159043
S11324E0159135916591959105907FE27395E11869
S11324F0F10A430B560BC90BD009C0F7E10CF11ECE
S1132500431F561FC91FD01D7EF4703311F48A95E2
S1132510E6CFE894015030F0080F0AF400270217C0
S113252008F4202F2395022F7A3328F079E37D9342
S11325302A95E9F710C07D932A9589F60694979514
S11325406795379517951794E118F10A430B560BC5
S1132550C90BD00998F023957E9173957A3308F0CE
S113256070E37C932013B8F77E9170617D9330F013
S1132570839571E37D9370E32A95E1F71124EF903D
S1132580FF900F911F91CF91DF91992787FD90952F
S11325900895FC010590615070400110D8F78095B2
S11325A090958E0F9F1F0895FC016150704001901B
S11325B00110D8F7809590958E0F9F1F08950F9363
S11325C01F93CF93DF93FB01238121FD03C08FEF82
S11325D09FEF2CC022FF16C046815781248135818C
S11325E04217530744F4A081B1819D012F5F3F4FEF
S11325F0318320838C93268137812F5F3F4F37832C
S1132600268314C08B01EC01FB010084F185E02DCD
S11326100995892BE1F6D80116968D919C9117970F
S1132620019617969C938E931697CE01DF91CF91C6
S11326301F910F910895A0E0B0E0E1E2F3E10C9462
S1132640CA11AE014B5F5F4FFA0161917191AF0105
S11326508091DD059091DE050E94ED0DE2E00C9481
S1132660E6116091DD057091DE050E94DF12089588
S11326700F931F93CF93DF93E091DD05F091DE0577
S1132680238121FF1BC08C01D0E0C0E0F8018191BF
S11326908F016091DD057091DE05DB011896ED91E7
S11326A0FC911997882331F00995892B79F3DFEF91
S11326B0CFEFECCF8AE00995892B19F08FEF9FEFCC
S11326C002C08D2F9C2FDF91CF911F910F91089500
S11326D0FA01AA27283051F1203181F1E8946F934F
S11326E06E7F6E5F7F4F8F4F9F4FAF4FB1E03ED0F5
S11326F0B4E03CD0670F781F891F9A1FA11D680F93
S1132700791F8A1F911DA11D6A0F711D811D911DC5
S1132710A11D20D009F468943F912AE0269F11243A
S11327203019305D3193DEF6CF010895462F47709E
S1132730405D4193B3E00FD0C9F7F6CF462F4F70F9
S1132740405D4A3318F0495D31FD4052419302D057
S1132750A9F7EACFB4E0A6959795879577956795FD
S1132760BA95C9F700976105710508959B01AC01FD
S11327700A2E06945795479537952795BA95C9F724
S1132780620F731F841F951FA01D0895F894FFCF37
S11327900000000200000000FA00000000000A53DC
S11327A0656E74200020746F20484D313000484D10
S11327B0313020526573706F6E73653A2000496E34
S11327C0736964653A20484D313020496E6974005C
S11327D041542B52454E45570041542B4E414D45D3
S11327E05363656E655F536166650041542B524FB8
S11327F04C45300041542B524F4C453F00537461BB
S11328007274696E672073707333302070726F62F4
S1132810652E2E2E005350532073656E736F7220F5
S113282070726F62696E67206661696C65640053DB
S113283050532073656E736F722070726F62696E8D
S113284067207375636365737366756C0065727274
S11328506F722072656164696E67206669726D7754
S11328606172652076657273696F6E0046573A200F
S113287025752E25750A006572726F722072656166
S113288064696E672073657269616C206E756D6230
S113289065720053657269616C204E756D62657274
S11328A03A2025730A0045787472656D65204E657B
S11328B0676174697665205072657373757265001B
S11328C045787472656D6520506F736974697665B7
S11328D020507265737375726500496E697469611D
S11328E06C697A6174696F6E20436F6D706C657486
S11328F065210A006572726F72206578656375746C
S1132900696E672077616B655F757028293A2025A9
S1132910690A006572726F722065786563757469FF
S11329206E672073746F705F706572696F6469633A
S11329305F6D6561737572656D656E7428293A20E3
S113294025690A006572726F722065786563757413
S1132950696E67207265696E697428293A20256951
S11329600A006572726F7220657865637574696EAA
S1132970672073746172745F706572696F646963F0
S11329805F6D6561737572656D656E7428293A2093
S113299025690A004D6561737572656D656E7473A2
S11329A020537461727465642E0D0A006572726F2F
S11329B07220657865637574696E67206765745FF6
S11329C0646174615F72656164795F737461747565
S11329D07328293A2025690A006572726F7220658E
S11329E07865637574696E6720726561645F6D658F
S11329F061737572656D656E7428293A2025690ABC
S1132A000053434434312052656164696E67733AFC
S1132A1000434F3220636F6E63656E747261746934
S1132A206F6E205B70706D5D3A2025750A005465E9
S1132A306D7065726174757265205BEFBFBD435D37
S1132A40203A202569B020430A0048756D696469FD
S1132A507479205B52485D3A20257525250A002F9C
S1132A602F2F2F2F2F2F2F2F2F2F2F2F2F2F2F2F72
S1132A702F2F2F2F2F2F2F2F2F2F2F2F2F2F2F2F62
S1132A802F2F2F2F2F2F2F2F2F2F2F2F2F2F2F2F52
S1132A902F2F2F2F00507265737375726520536545
S1132AA06E736F722052656164696E67733A005089
S1132AB0726573737572653A20252E3266206B50E9
S1132AC0610A006572726F72207374617274696E48
S1132AD067206D6561737572656D656E7400535022
S1132AE05333302052656164696E67733A006572CE
S1132AF0726F722072656164696E67206D656173BF
S1132B007572656D656E7400252E326620706D31A8
S1132B102E300A00252E326620706D322E350A00C2
S1132B20252E326620706D342E300A00252E326632
S1132B3020706D31302E300A00252E3266206E63EF
S1132B40302E350A00252E3266206E63312E300A6F
S1132B5000252E3266206E63322E350A00252E3271
S1132B6066206E63342E350A00252E3266206E638D
S1132B7031302E300A00252E326620747970696354
S1132B80616C207061727469636C652073697A6525
S1132B900A003078256C6C780A00427566666572A6
S1132BA02066756C6C2C20636C656172696E672E8F
S1132BB02E2E003129726561642062797465206566
S1132BC072726F7220726574203D20256400322970
S1132BD0726561642062797465206572726F722017
S1132BE0726574203D2025640053746174757320EC
S10B2BF0213D2030783038004B
S9030000FC
