:100000000C94DB000C94F8000C94F8000C94F800AD
:100010000C94F8000C94F8000C94F8000C94F80080
:100020000C94F8000C94F8000C94F8000C94F80070
:100030000C94F8000C94F8000C94F8000C94F80060
:100040000C94F8000C94F8000C94D2080C94F8006E
:100050000C94F8000C94F8000C94F8000C94F80040
:100060000C94F8000C94F8000C94F8000C94F80030
:100070000C94F8000C94F8000C94F8000C94F80020
:100080000C94F8000C94F8000C94F8000C94F80010
:100090000C94F8000C94F8000C94F8000C94F80000
:1000A0000C94F8000C94F8000C94F8000C94F800F0
:1000B0000C94F8006E616E00696E660000407A1064
:1000C000F35A00A0724E18090010A5D4E80000E809
:1000D0007648170000E40B54020000CA9A3B000067
:1000E00000E1F505000080969800000040420F00F6
:1000F0000000A08601000000102700000000E803B7
:10010000000000006400000000000A000000000081
:100110000100000000002C76D888DC674F0823DF40
:10012000C1DFAE59E1B1B796E5E3E453C63AE65113
:10013000997696E8E6C28426EB898C9B62ED407C3A
:100140006FFCEFBC9C9F40F2BAA56FA5F490055AD6
:100150002AF75C936B6CF9676DC11BFCE0E40D47FB
:10016000FEF520E6B500D0ED902E0300943577051E
:100170000080841E080000204E0A000000C80C33D6
:100180003333330F986E12831141EF8D2114893B65
:10019000E65516CFFEE6DB18D1844B381BF77C1DE5
:1001A000901DA4BBE424203284725E228100C9F138
:1001B00024ECA1E53D2711241FBECFEFD8E0DEBF20
:1001C000CDBF15E0A0E0B1E0E8E7FEE302C0059096
:1001D0000D92AE32B107D9F725E0AEE2B5E001C02D
:1001E0001D92A83AB207E1F70E94FA000C943A1F58
:1001F0000C940000CF93DF93CDB7DEB7C954D34042
:100200000FB6F894DEBF0FBECDBF0E94DC050E9482
:1002100068060E94760678940E946B0E0E941A0768
:100220001E821D8282E60E946F148EE091E00E9481
:100230008A1E80E090E8ABE3B5E48D8F9E8FAF8F90
:10024000B8A320E030E04AE755E46D8D7E8D8F8DB8
:1002500098A10E940119DC01CB0189A39AA3ABA349
:10026000BCA320E030E040E85FE369A17AA18BA164
:100270009CA10E949D1788232CF481E090E09EA30E
:100280008DA33FC020E03FEF4FE757E469A17AA17B
:100290008BA19CA10E94FC1818164CF520E030E0C0
:1002A00040E251E46D8D7E8D8F8D98A10E940119E1
:1002B000DC01CB01BC01CD010E941B18DC01CB018C
:1002C0009EA38DA30FC080E991E098A78FA38FA173
:1002D00098A50197F1F798A78FA38DA19EA10197EB
:1002E0009EA38DA38DA19EA1892B69F714C069A13E
:1002F0007AA18BA19CA10E941B18DC01CB019EA3BB
:100300008DA38DA19EA19AA789A789A59AA50197DA
:10031000F1F79AA789A71A8219821C821B823BC413
:100320008B819C81865C9A4FFC018081803409F02E
:100330001EC488E291E00E948A1E0E94AD070E94BE
:10034000E6079C878B878C858F938B858F9389E3BA
:1003500091E0892F8F9389E391E08F930E946D1E26
:100360000F900F900F900F908B859C85CC01A0E093
:10037000B0E0BC01CD010E944A18DC01CB0120E0B5
:1003800030EC4FE754E4BC01CD010E94A217DC0120
:10039000CB0120E030E040EA50E4BC01CD010E94F6
:1003A0000119DC01CB018D879E87AF87B88B8B85C8
:1003B0009C850E942308DC01CB01898B9A8BAB8B37
:1003C000BC8B88898F938F858F938E858F938D8536
:1003D0008F9382E491E0892F8F9382E491E08F9351
:1003E0000E946D1E0F900F900F900F900F900F9026
:1003F0008C898F938B898F938A898F9389898F9327
:1004000081E591E0892F8F9381E591E08F93CE0173
:10041000865B9D4F292F2F938F930E94BA1E8DB715
:100420009EB708960FB6F894DEBF0FBECDBFCE01C3
:10043000865B9D4F0E9499060E94FA169E838D83CB
:100440008D819E81892B89F08E818F938D818F93F1
:100450008BE591E0892F8F938BE591E08F930E943C
:100460006D1E0F900F900F900F900E94CC159E83E1
:100470008D838D819E81892B89F08E818F938D81D3
:100480008F938AE791E0892F8F938AE791E08F938A
:100490000E946D1E0F900F900F900F900E94BB1640
:1004A0009E838D838D819E81892B89F08E818F9390
:1004B0008D818F938BEA91E0892F8F938BEA91E066
:1004C0008F930E946D1E0F900F900F900F9086E8F3
:1004D00090E00E940B169E838D838D819E81892BD7
:1004E00089F08E818F938D818F9389EC91E0892F94
:1004F0008F9389EC91E08F930E946D1E0F900F9067
:100500000F900F900E94AD149E838D838D819E81EC
:10051000892BA1F08E818F938D818F9384EF91E051
:10052000892F8F9384EF91E08F930E946D1E0F901F
:100530000F900F900F908D819E8134C31FAECE011E
:10054000805C9F4FFC0111821082CE018E5B9F4F19
:10055000FC011082118212821382CE018A5B9F4FAE
:10056000FC0110821182128213821E8A1D8A80E091
:1005700090E4ACE9B5E48F839887A987BA8720E037
:1005800030E04AE755E46F81788589859A850E9435
:100590000119DC01CB018BA79CA7ADA7BEA720E06A
:1005A00030E040E85FE36BA57CA58DA59EA50E9489
:1005B0009D1788232CF481E090E098AB8FA73FC073
:1005C00020E03FEF4FE757E46BA57CA58DA59EA5E6
:1005D0000E94FC1818164CF520E030E040E251E48F
:1005E0006F81788589859A850E940119DC01CB018C
:1005F000BC01CD010E941B18DC01CB0198AB8FA779
:100600000FC080E991E09AAB89AB89A99AA90197BB
:10061000F1F79AAB89AB8FA598A9019798AB8FA7F3
:100620008FA598A9892B69F714C06BA57CA58DA50A
:100630009EA50E941B18DC01CB0198AB8FA78FA54C
:1006400098A99CAB8BAB8BA99CA90197F1F79CABAC
:100650008BABCE01CF960E947D149E838D838D81BE
:100660009E81892B71F18E818F938D818F938FE184
:1006700092E0892F8F938FE192E08F930E946D1EFD
:100680000F900F900F900F9081C2CE01CF960E94D5
:100690007D149E838D838D819E81892B91F08E8127
:1006A0008F938D818F938FE192E0892F8F938FE1CC
:1006B00092E08F930E946D1E0F900F900F900F90FD
:1006C00000009FAD81E089278823F9F6AE014A5BDF
:1006D0005F4F9E012E5B3F4FCE01805C9F4FB90163
:1006E0000E9461159E838D838D819E81892B99F057
:1006F0008E818F938D818F938CE492E0892F8F93DD
:100700008CE492E08F930E946D1E0F900F900F90DB
:100710000F9000003BC2CE018E5B9F4FFC01808199
:100720009181A281B381BC01CD010E944C18DC01F2
:10073000CB0120E030E04AE754E4BC01CD010E9447
:10074000A217DC01CB01BC01CD010E941418DC0111
:10075000CB019E012E5B3F4FF90180839183A283E1
:10076000B383CE018A5B9F4FFC0180819181A2817E
:10077000B38120E030E04AE754E4BC01CD010E949F
:10078000A217DC01CB019E012A5B3F4FF901808358
:100790009183A283B383CE01805C9F4FFC01808153
:1007A0009181292F2F938F9384E792E0892F8F9344
:1007B00084E792E08F93CE01865B9E4F292F2F9383
:1007C0008F930E94BA1E0F900F900F900F900F9072
:1007D0000F90CE01865B9E4F0E949906CE018E5BE4
:1007E0009F4FFC0180819181A281B3812B2F2F9398
:1007F0002A2F2F93292F2F938F9382E892E0892F0E
:100800008F9382E892E08F93CE01865B9E4F292FD3
:100810002F938F930E94BA1E8DB79EB708960FB67E
:10082000F894DEBF0FBECDBFCE01865B9E4F0E9407
:100830009906CE018A5B9F4FFC0180819181A28144
:10084000B3812B2F2F932A2F2F93292F2F938F9301
:100850008FE892E0892F8F938FE892E08F93CE01FB
:10086000865B9E4F292F2F938F930E94BA1E8DB7C0
:100870009EB708960FB6F894DEBF0FBECDBFCE016F
:10088000865B9E4F0E9499060E94CF0680E090E80A
:10089000ABE3B5E48F8B988FA98FBA8F20E030E05F
:1008A0004AE755E46F89788D898D9A8D0E940119E8
:1008B000DC01CB018DAB9EABAFABB8AF20E030E03D
:1008C00040E85FE36DA97EA98FA998AD0E949D17AE
:1008D00088232CF481E090E09AAF89AF3FC020E0FC
:1008E0003FEF4FE757E46DA97EA98FA998AD0E940D
:1008F000FC1818164CF520E030E040E251E46F8916
:10090000788D898D9A8D0E940119DC01CB01BC0183
:10091000CD010E941B18DC01CB019AAF89AF0FC03B
:1009200080E991E09CAF8BAF8BAD9CAD0197F1F767
:100930009CAF8BAF89AD9AAD01979AAF89AF89AD66
:100940009AAD892B69F714C06DA97EA98FA998ADBE
:100950000E941B18DC01CB019AAF89AF89AD9AAD1B
:100960009EAF8DAF8DAD9EAD0197F1F79EAF8DAF70
:100970001A8219820E94600D9C8F8B8F8B8D9C8DAB
:10098000992324F483EA92E00E948A1E8EEB92E07F
:100990000E948A1E60E472E48FE090E00E94D80E0C
:1009A0008AE795E00E94850D9C8F8B8F8B8D9C8DA7
:1009B00099232CF48EEC92E00E948A1EE7C080916D
:1009C0007E0590917F05A0918005B09181052B2F28
:1009D0002F932A2F2F93292F2F938F9388EE92E016
:1009E000892F8F9388EE92E08F93CE01865B9F4F85
:1009F000292F2F938F930E94BA1EEDB7FEB738961A
:100A00000FB6F894DEBF0FBECDBFCE01865B9F4F01
:100A10000E9499068091860590918705A09188058E
:100A2000B09189052B2F2F932A2F2F93292F2F93A6
:100A30008F9384EF92E0892F8F9384EF92E08F93CE
:100A4000CE01865B9F4F292F2F938F930E94BA1E52
:100A50008DB79EB708960FB6F894DEBF0FBECDBF18
:100A6000CE01865B9F4F0E949906809192059091DE
:100A70009305A0919405B09195052B2F2F932A2FC4
:100A80002F93292F2F938F9381E093E0892F8F93BA
:100A900081E093E08F93CE01865B9F4F292F2F93A8
:100AA0008F930E94BA1EEDB7FEB738960FB6F89432
:100AB000DEBF0FBECDBFCE01865B9F4F0E94990661
:100AC00080919A0590919B05A0919C05B0919D0500
:100AD0002B2F2F932A2F2F93292F2F938F938DE036
:100AE00093E0892F8F938DE093E08F93CE01865B07
:100AF0009F4F292F2F938F930E94BA1E8DB79EB7B9
:100B000008960FB6F894DEBF0FBECDBFCE01865B50
:100B10009F4F0E94990680919E0590919F05A091FC
:100B2000A005B091A1052B2F2F932A2F2F93292FAA
:100B30002F938F938AE193E0892F8F938AE193E03B
:100B40008F93CE01865B9F4F292F2F938F930E9407
:100B5000BA1EEDB7FEB738960FB6F894DEBF0FBEDB
:100B6000CDBFCE01865B9F4F0E9499060FC0898141
:100B70009A81019759F00E94D50786E393E00E947D
:100B80008A1E89819A8101969A8389838B819C81AF
:100B900001969C838B838B819C818034910508F422
:100BA000BFCBBBCBC75BDC4F0FB6F894DEBF0FBE2D
:100BB000CDBFDF91CF910895CF93DF93CDB7DEB74F
:100BC0008CE490E02CE430E0F90120812F7BFC01E3
:100BD000208384E690E024E630E0F90120812D7F37
:100BE000FC0120838AE290E02AE230E0F9012081D2
:100BF0002260FC0120838AE290E02AE230E0F901E1
:100C000020812E7FFC01208385EC90E0FC01108286
:100C100084EC90E027E6FC01208381EC90E021EC5D
:100C200030E0F90120812869FC01208382EC90E00A
:100C300022EC30E0F90120812660FC01208382EC67
:100C400090E022EC30E0F90120812F73FC01208339
:100C50000000DF91CF910895CF93DF931F92CDB71E
:100C6000DEB78983000080EC90E0FC018081882F52
:100C700090E080729927892BB1F386EC90E029816E
:100C8000FC01208300000F90DF91CF910895CF9356
:100C9000DF9300D01F92CDB7DEB789837B836A8351
:100CA000000088EC90E0FC018081882F90E0807249
:100CB0009927892BB1F38EEC90E02981FC012083E8
:100CC00080E090E00F900F900F90DF91CF9108950A
:100CD000CF93DF93CDB7DEB780E091E09093A50589
:100CE0008093A4050000DF91CF910895CF93DF9307
:100CF000CDB7DEB78DEC90E0FC0110828CEC90E07B
:100D000027E6FC01208389EC90E029EC30E0F90132
:100D100020812861FC0120838AEC90E02AEC30E0FD
:100D2000F90120812660FC0120830000DF91CF9132
:100D30000895CF93DF9300D0CDB7DEB79A83898330
:100D400083E493E0892F8F9383E493E08F930E9451
:100D50006D1E0F900F9013C089819A81FC018081D4
:100D6000882F90E00E94831E89819A819C012F5FC9
:100D70003F4F3A832983FC0180810E942C068981A0
:100D80009A81FC018081882339F789E493E00E94ED
:100D90008A1E00000F900F90DF91CF910895CF939E
:100DA000DF93CDB7DEB740E450E060E070E08AE367
:100DB00095E00E941F1E10922E050000DF91CF913A
:100DC0000895CF93DF9300D0CDB7DEB782E593E0EF
:100DD000892F8F9382E593E08F930E946D1E0F9071
:100DE0000F901A82198217C089819A81865C9A4F66
:100DF000FC018081882351F089819A81865C9A4F19
:100E0000FC018081882F90E00E94831E89819A8155
:100E100001969A83898389819A818034910520F390
:100E200082E693E00E948A1E00000F900F90DF91EF
:100E3000CF910895CF93DF93CDB7DEB7A4970FB6C8
:100E4000F894DEBF0FBECDBF81E993E00E948A1EF9
:100E50000AC089EA93E00E948A1E60E472E48FE08F
:100E600090E00E94D80E0E94E40C892B91F783EC4D
:100E700093E00E948A1E9E012C5F3F4FCE01039695
:100E8000B9010E94FD0C9A83898389819A81892BFB
:100E900029F081EE93E00E948A1E1BC08C81282FCE
:100EA00030E08B81882F90E0432F4F932F93292F91
:100EB0002F938F9380E094E0892F8F9380E094E0CC
:100EC0008F930E946D1E0F900F900F900F900F90B8
:100ED0000F90CE0105960E94320D9A8389838981F5
:100EE0009A81892B29F08BE094E00E948A1E12C01F
:100EF000CE010596292F2F938F9387E294E0892FB7
:100F00008F9387E294E08F930E946D1E0F900F9055
:100F10000F900F9042E050E067E076E589E60E948E
:100F2000AF0E082E000C990B9A83898389819A81D0
:100F3000892B29F08AE394E00E948A1E04C088E588
:100F400094E00E948A1E0000A4960FB6F894DEBFBB
:100F50000FBECDBFDF91CF910895CF93DF93CDB773
:100F6000DEB78AE790E02AE730E0F90120812068C7
:100F7000FC0120838CE790E023E4FC0120838AE7D6
:100F800090E02AE730E0F90120812760FC0120830E
:100F900087E290E027E230E0F9012081277FFC0121
:100FA00020830000DF91CF910895CF93DF93CDB7D9
:100FB000DEB78AE790E02AE730E0F90120812F7759
:100FC000FC0120830000DF91CF910895CF93DF9340
:100FD00000D0CDB7DEB71A8219828AE790E02AE7FF
:100FE00030E0F90120812064FC01208300008AE7C1
:100FF00090E0FC018081882F90E080749927892BF4
:10100000B1F788E790E0FC018081882F90E029818A
:101010003A81822B932B9A83898389E790E0FC01A4
:101020008081882F90E0982F88279C0189819A8160
:10103000822B932B9A83898389819A810F900F90B9
:10104000DF91CF910895CF93DF93CDB7DEB7CA502C
:10105000D1400FB6F894DEBF0FBECDBF9E01275F13
:101060003E4FF90191838083CE01875F9E4FFC0143
:1010700080819181CC01A0E0B0E0BC01CD010E9453
:101080004A18DC01CB0120E030EC4FE754E4BC010E
:10109000CD010E94A217DC01CB0120E030E040EA44
:1010A00050E4BC01CD010E940119DC01CB018D830C
:1010B0009E83AF83B88720E030E040E250E46D814A
:1010C0007E818F8198850E943017DC01CB012DEC49
:1010D0003CEC4CE45DE3BC01CD010E94A217DC01B5
:1010E000CB0189839A83AB83BC8320E030E040E26C
:1010F00052EC69817A818B819C810E949D178823A3
:10110000BCF480E090E0A0E2B2EC89839A83AB83E8
:10111000BC83CE0109962BE1E5E6F4E0DC01019009
:101120000D922A95E1F7CE0109960E94990622C0F8
:1011300020E030E040E252E469817A818B819C8139
:101140000E94FC181816B4F480E090E0A0E2B2E42B
:1011500089839A83AB83BC83CE0109962BE1E0E8B7
:10116000F4E0DC0101900D922A95E1F7CE01099699
:101170000E949906CE01099640E051E060E070E0DF
:101180000E941F1E89819A81AB81BC81BC01CD0167
:10119000C65FDE4F0FB6F894DEBF0FBECDBFDF9146
:1011A000CF9108951F920F9200905F000F9211242B
:1011B0002F933F934F935F936F937F938F939F935F
:1011C000AF93BF93EF93FF93CF93DF931F92CDB76E
:1011D000DEB786EC90E0FC01808189838981882FCD
:1011E00090E0292F2F938F9383EA94E0892F8F9398
:1011F00083EA94E08F930E946D1E0F900F900F90E2
:101200000F9080912E058F3378F480912E05882FD2
:1012100090E02981865C9A4FFC01208380912E0505
:101220008F5F80932E0513C081EB94E00E948A1E8D
:101230008AEC94E0892F8F938AEC94E08F930E943C
:101240006D1E0F900F900E94E1060E94CF060000D5
:101250000F90DF91CF91FF91EF91BF91AF919F914F
:101260008F917F916F915F914F913F912F910F904F
:1012700000925F000F901F901895CF93DF9300D0DE
:10128000CDB7DEB79A83898389819A81FC018081F9
:10129000882F90E0382F222789819A810196FC01BE
:1012A0008081882F90E0822B932B0F900F90DF91FD
:1012B000CF910895CF93DF9300D0CDB7DEB79A8357
:1012C000898389819A81FC018081882F90E0A0E048
:1012D000B0E0582F44273327222789819A8101962D
:1012E000FC018081882F90E0A0E0B0E0DC0199272C
:1012F0008827282B392B4A2B5B2B89819A810296D0
:10130000FC018081882F90E0A0E0B0E0BA2FA92FE7
:10131000982F8827282B392B4A2B5B2B89819A8180
:101320000396FC018081882F90E0A0E0B0E0822B42
:10133000932BA42BB52BBC01CD010F900F90DF9107
:10134000CF910895CF93DF9300D000D000D0CDB7D8
:10135000DEB79E838D838D819E810E945A09DC01B8
:10136000CB0189839A83AB83BC8389819A81AB81CA
:10137000BC81BC01CD0126960FB6F894DEBF0FBE2E
:10138000CDBFDF91CF910895CF93DF93CDB7DEB777
:1013900028970FB6F894DEBF0FBECDBF9E838D8316
:1013A00078876F838FEF8B831A82198229C02D81F2
:1013B0003E8189819A81820F931FFC0180819B81EC
:1013C00089278B8388E08C8313C08B81882354F416
:1013D0008B81882F90E0880F991F982F81E38927B0
:1013E0008B8303C08B81880F8B838C8181508C838E
:1013F0008C81882351F789819A8101969A83898308
:1014000029813A818F8198852817390780F28B814D
:1014100028960FB6F894DEBF0FBECDBFDF91CF91F7
:101420000895CF93DF9300D000D01F92CDB7DEB7E1
:101430009A8389837C836B834D832B813C81898153
:101440009A81B9010E94C409982F8D81981711F0D3
:101450008FEF01C080E00F900F900F900F900F90D2
:10146000DF91CF910895CF93DF93CDB7DEB72B9760
:101470000FB6F894DEBF0FBECDBF9E838D837887F5
:101480006F835A8749872B871B821A828A819B81A7
:101490009C012F5F3F4F3B832A832D813E81820F2A
:1014A000931F2F813885232F3327FC0120838A81C6
:1014B0009B819C012F5F3F4F3B832A832D813E817F
:1014C000820F931F2F81FC012083198251C08A81D2
:1014D0009B819C012F5F3F4F3B832A832D813E815F
:1014E000820F931F2981222F30E0220F331F49855D
:1014F0005A85240F351FF90120813181232F33278D
:10150000FC0120838A819B819C012F5F3F4F3B839D
:101510002A832D813E81820F931F2981222F30E063
:10152000220F331F49855A85240F351FF901208169
:101530003181FC0120838A819B8102972D813E812C
:10154000820F931F62E070E00E94C4098C838A813D
:101550009B819C012F5F3F4F3B832A832D813E81DE
:10156000820F931F2C81FC01208389818F5F8983E7
:1015700099818B85981708F4AACF8A819B812B9635
:101580000FB6F894DEBF0FBECDBFDF91CF910895A7
:10159000CF93DF93CDB7DEB7CF54D1090FB6F89410
:1015A000DEBF0FBECDBF9E01255B3F4FF90180839B
:1015B000CE01845B9F4FFC0171836083CE01825B0F
:1015C0009F4FFC0151834083CE01825B9F4FFC0102
:1015D00020813181C901880F991F820F931F9E833B
:1015E0008D83CE010B9698878F834D815E812F81ED
:1015F0003885CE01855B9F4FB901FC0180810E9437
:10160000850E082E000C990B9A87898789859A8503
:10161000892BA1F08A858F9389858F9388EE94E03A
:10162000892F8F9388EE94E08F930E946D1E0F9008
:101630000F900F900F9089859A8575C01A82198234
:101640001C821B8266C089819A8102962F8138850F
:10165000820F931FFC0140812F81388589819A81F7
:10166000820F931F62E070E00E94110A082E000CA6
:10167000990B9A87898789859A85892B89F08A852C
:101680008F9389858F9383E095E0892F8F9383E0F3
:1016900095E08F930E946D1E0F900F900F900F900A
:1016A0008B819C819C012F5F3F4F3C832B839E014C
:1016B000245B3F4FF90120813181820F931F4F81BD
:1016C000588529813A81240F351FF9012081FC01B9
:1016D00020838B819C819C012F5F3F4F3C832B8318
:1016E0009E01245B3F4FF90120813181820F931FBE
:1016F00029813A812F5F3F4F4F815885240F351F35
:10170000F9012081FC01208389819A8103969A83C3
:10171000898329813A818D819E812817390708F4B0
:1017200092CF80E090E0C15BDF4F0FB6F894DEBF50
:101730000FBECDBFDF91CF910895CF93DF93CDB78B
:10174000DEB72A970FB6F894DEBF0FBECDBF8E83EB
:1017500078876F835A87498729853A858F8198854D
:10176000A901BC018E810E94C80A9B838A838A8159
:101770009B81892B19F08A819B8138C019822CC0EA
:101780008981882F90E0880F991F2F813885820FDB
:10179000931F9D838C838981882F90E0880F991FE8
:1017A0002F813885820F931F2C813D81F901208183
:1017B000222F30E0522F44272C813D812F5F3F4F55
:1017C000F9012081222F30E0242B352BFC013183BD
:1017D000208389818F5F89838981282F30E08985E3
:1017E0009A852817390760F280E090E02A960FB6B4
:1017F000F894DEBF0FBECDBFDF91CF910895CF9398
:10180000DF9300D000D01F92CDB7DEB78B837D83EE
:101810006C838C819D8120E040E050E0BC01CE01D2
:1018200001960E94330A42E050E0CE010196BC01CD
:101830008B810E94AF0E082E000C990B0F900F9019
:101840000F900F900F90DF91CF910895CF93DF937A
:10185000CDB7DEB7A9970FB6F894DEBF0FBECDBFE8
:101860008BA37DA36CA35FA34EA339A728A728A5AC
:101870004EA15FA16CA17DA1CE0103960E94330A07
:101880009A83898329813A81CE010396A901BC01FB
:101890008BA10E94AF0E082E000C990BA9960FB6D3
:1018A000F894DEBF0FBECDBFDF91CF910895EF92C8
:1018B000FF920F931F93CF93DF93CDB7DEB72F9790
:1018C0000FB6F894DEBF0FBECDBF8D837F836E83CE
:1018D000288739874A875B871D870C87FF86EE86B6
:1018E0006E817F81CE01039620E040E050E00E94AF
:1018F000330ACE01039642E050E0BC018D810E9484
:10190000AF0E082E000C990B9A83898389819A81E6
:10191000892B19F089819A8119C088859985AA85B2
:10192000BB85892B8A2B8B2B41F088859985AA85CD
:10193000BB85BC01CD010E94D80E2E853F858C85CC
:101940009D85A901BC018D810E949D0B2F960FB62C
:10195000F894DEBF0FBECDBFDF91CF911F910F91E5
:10196000FF90EF900895EF92FF920F931F93CF9304
:10197000DF93CDB7DEB727970FB6F894DEBF0FBE63
:10198000CDBF89837B836A835D834C833F832E83B2
:101990004E815F812C813D818A819B817A01890101
:1019A00020E030E0A901BC0189810E94570C2796F4
:1019B0000FB6F894DEBF0FBECDBFDF91CF911F9160
:1019C0000F91FF90EF900895CF93DF93CDB7DEB7DF
:1019D000A0970FB6F894DEBF0FBECDBF0E94460E93
:1019E000CE0101960E94320DA0960FB6F894DEBF8C
:1019F0000FBECDBFDF91CF910895CF93DF93CDB7C9
:101A0000DEB728970FB6F894DEBF0FBECDBF9E831A
:101A10008D8378876F83CE01039621E030E0AC019F
:101A200060E071ED89E60E94B30C9A8389838B8113
:101A30009C81892F9927282F8D819E81FC012083ED
:101A40008B819C81282F8F819885FC01208389813F
:101A50009A8128960FB6F894DEBF0FBECDBFDF91F6
:101A6000CF910895CF93DF9300D000D0CDB7DEB7EC
:101A70009C838B8363E370ED89E60E94FF0B9A835E
:101A8000898389819A81892B19F089819A8111C072
:101A90008B819C8140E150E0BC0189E60E94C80A2C
:101AA0009A8389838B819C814F96FC011082898166
:101AB0009A810F900F900F900F90DF91CF91089522
:101AC000CF93DF9300D000D0CDB7DEB780E093E0B6
:101AD0009C838B83CE01039621E030E0AC0160E172
:101AE00070E089E60E94260C9A83898360E27EE496
:101AF00080E090E00E94D80E89819A810F900F902B
:101B00000F900F90DF91CF910895CF93DF93CDB7D2
:101B1000DEB7AC970FB6F894DEBF0FBECDBF9CA763
:101B20008BA760E073E089E60E94FF0B9A838983AC
:101B300089819A81892B19F089819A819EC0CE0171
:101B4000039644E150E0BC0189E60E94C80A9A83EA
:101B5000898389819A81892B19F089819A818DC025
:101B6000CE0103960E94A209DC01CB012BA53CA566
:101B7000F90180839183A283B383CE0103960496F7
:101B80000E94A209DC01CB012BA53CA5F9018483AD
:101B90009583A683B783CE01039608960E94A20977
:101BA000DC01CB012BA53CA5F90180879187A28799
:101BB000B387CE0103960C960E94A209DC01CB01EB
:101BC0002BA53CA5F90184879587A687B787CE0109
:101BD000039640960E94A209DC01CB012BA53CA5EF
:101BE000F901808B918BA28BB38BCE010396449627
:101BF0000E94A209DC01CB012BA53CA5F901848B35
:101C0000958BA68BB78BCE01039648960E94A209AE
:101C1000DC01CB012BA53CA5F901808F918FA28F10
:101C2000B38FCE0103964C960E94A209DC01CB0132
:101C30002BA53CA5F901848F958FA68FB78FCE0178
:101C4000039680960E94A209DC01CB012BA53CA53E
:101C5000F90180A391A3A2A3B3A3CE010396849616
:101C60000E94A209DC01CB012BA53CA5F90184A3AC
:101C700095A3A6A3B7A380E090E0AC960FB6F89426
:101C8000DEBF0FBECDBFDF91CF910895CF93DF931D
:101C900000D0CDB7DEB763E071E189E60E94FF0BAB
:101CA00063E071E189E60E94FF0B9A838983898151
:101CB0009A81892B19F089819A8108C068E873E1BB
:101CC00080E090E00E94D80E80E090E00F900F90AE
:101CD000DF91CF910895CF93DF93CDB7DEB789EB36
:101CE00090E0FC01108288EB90E029E4FC01208365
:101CF00089ED90E0FC01108288ED90E029E4FC0180
:101D000020830000DF91CF9108950F931F93CF930D
:101D1000DF9300D000D01F92CDB7DEB789837B83DD
:101D20006A835D834C832C813D818A819B818901FB
:101D30009C0140E050E060E070E089E60E94E30F23
:101D4000882311F08FEF01C080E00F900F900F906B
:101D50000F900F90DF91CF911F910F9108950F93E6
:101D60001F93CF93DF9300D000D01F92CDB7DEB783
:101D700089837B836A835D834C834C815D818A8107
:101D80009B8100E010E020E030E0BC0189E60E9489
:101D9000E30F882311F08FEF01C080E00F900F90C8
:101DA0000F900F900F90DF91CF911F910F91089599
:101DB000CF93DF93CDB7DEB7A4970FB6F894DEBF0D
:101DC0000FBECDBF69A37AA38BA39CA369A17AA1FF
:101DD0008BA19CA10E944A18DC01CB0189839A83C4
:101DE000AB83BC832BEA3AEA4AEA50E469817A8100
:101DF0008B819C810E940119DC01CB018D839E8324
:101E0000AF83B88720E030E040E850E469817A8110
:101E10008B819C810E940119DC01CB0189879A8703
:101E2000AB87BC8720E030E040E85FE36D817E81D6
:101E30008F8198850E949D1788231CF481E08D87EF
:101E4000B2C020E03FEF4FE757E469857A858B8584
:101E50009C850E94FC1818160CF07BC020E030E036
:101E60004AE754E469817A818B819C810E94A217A0
:101E7000DC01CB018E879F87A88BB98B20E030E0F7
:101E80004AE755E46E857F85888999890E94011902
:101E9000DC01CB018A8B9B8BAC8BBD8B20E030E0CF
:101EA00040E85FE36A897B898C899D890E949D1740
:101EB00088232CF481E090E09F8B8E8B3FC020E044
:101EC0003FEF4FE757E46A897B898C899D890E949F
:101ED000FC1818164CF520E030E040E251E46E8525
:101EE0007F85888999890E940119DC01CB01BC0199
:101EF000CD010E941B18DC01CB019F8B8E8B0FC084
:101F000080E991E0998F888F888D998D0197F1F7FD
:101F1000998F888F8E899F8901979F8B8E8B8E8951
:101F20009F89892B69F73FC06A897B898C899D8944
:101F30000E941B18DC01CB019F8B8E8B8E899F89A1
:101F40009B8F8A8F8A8D9B8D0197F1F79B8F8A8F4C
:101F50002AC020E030E04FE753E46D817E818F811D
:101F600098850E94FC181816ACF469857A858B85D3
:101F70009C850E941B18DC01CB019D8F8C8F8C8D62
:101F80009D8D9F8F8E8F8E8D9F8D0197F1F79F8FE7
:101F90008E8F0FC06D817E818F8198850E941B1866
:101FA000DC01CB018D878D8588A388A18A95F1F707
:101FB00088A30000A4960FB6F894DEBF0FBECDBF75
:101FC000DF91CF9108950F931F93CF93DF93CDB7F8
:101FD000DEB72D970FB6F894DEBF0FBECDBF8D8351
:101FE0007F836E83598748873B872A871D870C87A5
:101FF00019821B821A8280912F05882309F02AC139
:1020000088859985892B09F472C081E08B8381E0F2
:102010008A838CEB90E024EAFC01208300008CEBA7
:1020200090E0FC0180818823D4F789EB90E0FC01EB
:102030008081887F89838981883031F08EE195E0C5
:102040000E948A1E898135C28BEB90E02D81220F80
:10205000FC0120838CEB90E024E8FC01208300004D
:102060008CEB90E0FC0180818823D4F789EB90E031
:10207000FC018081887F89838981883171F1898120
:10208000803209F4D8C0898114C22BEB30E08E81F4
:102090009F81AC014F5F5F4F5F834E83FC01808166
:1020A000F90180838CEB90E024E8FC0120830000A0
:1020B0008CEB90E0FC0180818823D4F789EB90E0E1
:1020C000FC018081887F89838981883231F0898110
:1020D000803309F4B2C08981ECC1888599859C015F
:1020E0002150310939872887892B79F619828C8507
:1020F0009D85892B09F4A4C081E08A838B81882384
:1021000011F080E101C088E08C838CEB90E024EA40
:10211000FC01208300008CEB90E0FC01808188238F
:10212000D4F789EB90E0FC018081887F89839981D5
:102130008C81981711F08981BCC18BEB90E02D81C7
:10214000222F30E0220F331F2160FC0120838CEB13
:1021500090E024E8FC01208300008CEB90E0FC017F
:1021600080818823D4F789EB90E0FC018081887F0F
:1021700089838981803431F08981883409F45FC092
:10218000898197C18C859D8501979D878C8724C007
:102190008CEB90E024ECFC01208300008CEB90E0C1
:1021A000FC0180818823D4F789EB90E0FC018081D9
:1021B000887F89838981803511F089817AC18A85F8
:1021C0009B859C012F5F3F4F3B872A872BEB30E09D
:1021D000F9012081FC0120838C859D859C01215083
:1021E00031093D872C87892B99F68CEB90E024E808
:1021F000FC01208300008CEB90E0FC0180818823AF
:10220000D4F789EB90E0FC018081887F8983898104
:10221000883511F089814DC18A859B859C012F5F8E
:102220003F4F3B872A872BEB30E0F9012081FC01EF
:102230002083198205C0000003C0000001C0000017
:102240008A81882329F08CEB90E024E9FC0120832B
:1022500089812FC180912F05813009F02AC188859D
:102260009985892B09F472C081E08B8381E08A8390
:102270008CED90E024EAFC01208300008CED90E0DE
:10228000FC0180818823D4F789ED90E0FC018081F6
:10229000887F89838981883031F08EE195E00E94C2
:1022A0008A1E898106C18BED90E02D81220FFC01F1
:1022B00020838CED90E024E8FC01208300008CED6D
:1022C00090E0FC0180818823D4F789ED90E0FC0147
:1022D0008081887F89838981883171F18981803209
:1022E00009F4D8C08981E5C02BED30E08E819F8153
:1022F000AC014F5F5F4F5F834E83FC018081F9012A
:1023000080838CED90E024E8FC01208300008CEDBC
:1023100090E0FC0180818823D4F789ED90E0FC01F6
:102320008081887F89838981883231F089818033F7
:1023300009F4B2C08981BDC0888599859C0121506E
:10234000310939872887892B79F619828C859D85F3
:10235000892B09F4A4C081E08A838B81882311F042
:1023600080E101C088E08C838CED90E024EAFC01E0
:10237000208300008CED90E0FC0180818823D4F75D
:1023800089ED90E0FC018081887F898399818C812F
:10239000981711F089818DC08BED90E02D81222F4F
:1023A00030E0220F331F2160FC0120838CED90E090
:1023B00024E8FC01208300008CED90E0FC0180818A
:1023C0008823D4F789ED90E0FC018081887F8983A0
:1023D0008981803431F08981883409F45FC0898132
:1023E00068C08C859D8501979D878C8724C08CED66
:1023F00090E024ECFC01208300008CED90E0FC01D7
:1024000080818823D4F789ED90E0FC018081887F6A
:1024100089838981803511F089814BC08A859B85AC
:102420009C012F5F3F4F3B872A872BED30E0F9015E
:102430002081FC0120838C859D859C0121503109E0
:102440003D872C87892B99F68CED90E024E8FC01E0
:10245000208300008CED90E0FC0180818823D4F77C
:1024600089ED90E0FC018081887F898389818835AE
:1024700011F089811EC08A859B859C012F5F3F4F8B
:102480003B872A872BED30E0F9012081FC01208376
:10249000198205C0000003C0000001C000008A814D
:1024A000882329F08CED90E024E9FC0120838981C8
:1024B00000C02D960FB6F894DEBF0FBECDBFDF91E2
:1024C000CF911F910F9108950F931F93CF93DF9397
:1024D00000D000D01F92CDB7DEB789837B836A839B
:1024E0005D834C834C815D818A819B8100E010E09B
:1024F00020E030E0BC0182E60E94E30F882311F067
:102500008FEF01C080E00F900F900F900F900F9011
:10251000DF91CF911F910F910895CF93DF9300D05A
:1025200000D01F92CDB7DEB789837B836A835D833A
:102530004C832C813D818A819B81A901BC018981C9
:102540000E946412082E000C990B0F900F900F90B0
:102550000F900F90DF91CF9108950F931F93CF931A
:10256000DF9300D000D0CDB7DEB789837B836A8349
:102570004C838C81282F30E08A819B8189019C01CA
:1025800040E050E060E070E082E60E94E30F8823C4
:1025900011F08FEF01C080E00F900F900F900F901F
:1025A000DF91CF911F910F910895CF93DF93CDB716
:1025B000DEB72D970FB6F894DEBF0FBECDBF89876B
:1025C0007B876A875D874C878C859D859C013695C6
:1025D0002795C901880F991F820F931F9E838D83B2
:1025E0008C859D8581709927892B19F084E090E076
:1025F00073C02D818A859B85422FBC0189850E94ED
:10260000AD12082E000C990B98878F838F819885C7
:10261000892B19F08F8198855FC01A8219821C82DC
:102620001B8250C089819A8102962A853B85820F40
:10263000931FFC0140812A853B8589819A81820F05
:10264000931F62E070E00E940014082E000C990BAA
:1026500098878F838F819885892B19F08F81988532
:102660003BC08B819C819C012F5F3F4F3C832B8320
:102670002A853B85820F931F4A855B8529813A8194
:10268000240F351FF9012081FC0120838B819C815F
:102690009C012F5F3F4F3C832B832A853B85820F14
:1026A000931F29813A812F5F3F4F4A855B85240F15
:1026B000351FF9012081FC01208389819A810396CD
:1026C0009A83898329813A818D819E8128173907D0
:1026D00008F4A8CF80E090E02D960FB6F894DEBF06
:1026E0000FBECDBFDF91CF9108950F931F93CF936E
:1026F000DF9300D000D000D0CDB7DEB79A838983B6
:102700007C836B835E834D838B819C819C012F5FD7
:102710003F4F3C832B8329813A81820F931F2D8168
:102720003E81232F3327FC0120838B819C819C01D8
:102730002F5F3F4F3C832B8329813A81820F931F68
:102740002D81FC01208329813A818B819C81890123
:10275000080F191F8B819C81029729813A81820F72
:10276000931F62E070E00E942214F80180838B8145
:102770009C8101969C838B838B819C8126960FB6CE
:10278000F894DEBF0FBECDBFDF91CF911F910F91A7
:102790000895CF93DF9300D000D000D0CDB7DEB73F
:1027A0009A8389837C836B835E834D838B819C8139
:1027B0009C012F5F3F4F3C832B8329813A81820FFD
:1027C000931F2D813E81232F3327FC0120838B8192
:1027D0009C819C012F5F3F4F3C832B8329813A8151
:1027E000820F931F2D81FC0120838B819C81269673
:1027F0000FB6F894DEBF0FBECDBFDF91CF91089525
:10280000CF93DF9300D000D01F92CDB7DEB79A836D
:1028100089837C836B834D832B813C8189819A8161
:10282000B9010E942214982F8D81981711F081E030
:1028300001C080E00F900F900F900F900F90DF91EC
:10284000CF910895CF93DF93CDB7DEB728970FB61A
:10285000F894DEBF0FBECDBF9E838D8378876F83D4
:102860008FEF8B831A82198229C02D813E81898145
:102870009A81820F931FFC0180819B8189278B8322
:1028800088E08C8313C08B81882354F48B81882F3C
:1028900090E0880F991F982F81E389278B8303C0CD
:1028A0008B81880F8B838C8181508C838C818823D2
:1028B00051F789819A8101969A83898329813A8186
:1028C0008F8198852817390780F28B8128960FB65B
:1028D000F894DEBF0FBECDBFDF91CF910895CF93A7
:1028E000DF931F92CDB7DEB7898389818093390545
:1028F00000000F90DF91CF910895CF93DF9300D028
:1029000000D000D0CDB7DEB79E838D831C821B82A2
:102910001A821982CE0103960E945A169A838983DD
:1029200089819A81892B19F089819A810DC08B81C7
:102930009C81977021E0892B09F420E08D819E8194
:10294000FC01208389819A8126960FB6F894DEBF18
:102950000FBECDBFDF91CF910895CF93DF9300D00D
:1029600000D000D0CDB7DEB71A82198280E395E09F
:102970009C838B831E821D822D813E818B819C8155
:1029800041EB51E2B9010E94C9139E838D83E0910E
:1029900039052D813E818B819C81A901BC018E2F3F
:1029A0000E948D129A83898389819A81892B19F0DB
:1029B00089819A8102C089819A8126960FB6F894FE
:1029C000DEBF0FBECDBFDF91CF910895CF93DF93D0
:1029D000CDB7DEB72C970FB6F894DEBF0FBECDBFD4
:1029E00098878F837A8769875C874B871A821982D9
:1029F00080E395E09C838B831E821D822D813E8126
:102A00008B819C8145E05CEEB9010E94C9139E83D5
:102A10008D83E09139052D813E818B819C81A901B7
:102A2000BC018E2F0E948D129A83898389819A819D
:102A3000892B19F089819A813BC068EE73E080E0B0
:102A400090E00E94D80E209139058B819C8146E050
:102A500050E0BC01822F0E94D5129A83898389811C
:102A60009A81892B19F089819A8122C08B819C815E
:102A70000E943D099C018F819885FC013183208350
:102A80008B819C8102960E943D099C0189859A85D3
:102A9000FC01318320838B819C8104960E943D0937
:102AA0009C018B859C85FC013183208389819A81DF
:102AB0002C960FB6F894DEBF0FBECDBFDF91CF913D
:102AC0000895CF93DF93CDB7DEB72C970FB6F89468
:102AD000DEBF0FBECDBF98878F837A8769875C87FB
:102AE0004B87AE014B5F5F4F9E012D5F3F4F8F8144
:102AF0009885B9010E94E6149A83898389819A8115
:102B0000892B19F089819A813EC08B819C819C011F
:102B100040E050E083E795E5DC010E94EB1CDC011E
:102B2000CB01072E7DE0B595A795979587957A956A
:102B3000D1F7702D885C9F4AA109B10929853A8592
:102B4000F90180839183A283B3838D819E819C014F
:102B500040E050E084ED90E3DC010E94EB1CDC01DE
:102B6000CB01072E7DE0B595A795979587957A952A
:102B7000D1F7702D2B853C85F90180839183A28349
:102B8000B38380E090E02C960FB6F894DEBF0FBEC2
:102B9000CDBFDF91CF910895CF93DF9300D000D0C8
:102BA00000D0CDB7DEB71A82198280E395E09C830E
:102BB0008B831E821D822D813E818B819C8146E804
:102BC0005FE3B9010E94C9139E838D83E0913905AB
:102BD0002D813E818B819C81A901BC018E2F0E9499
:102BE0008D129A83898389819A81892B19F0898131
:102BF0009A8108C060E271EA8FEF9FEF0E94D80EC1
:102C000089819A8126960FB6F894DEBF0FBECDBF9C
:102C1000DF91CF910895CF93DF93CDB7DEB728979B
:102C20000FB6F894DEBF0FBECDBF98878F831A8290
:102C3000198280E395E09C838B831E821D822D8107
:102C40003E818B819C8147E254E2B9010E94C91305
:102C50009E838D834F8158852D813E818B819C8100
:102C6000B9010E9475139E838D83E09139052D81F2
:102C70003E818B819C81A901BC018E2F0E948D1207
:102C80009A83898389819A81892B19F089819A8114
:102C900008C068EE73E080E090E00E94D80E898161
:102CA0009A8128960FB6F894DEBF0FBECDBFDF9194
:102CB000CF910895CF93DF93CDB7DEB728970FB6A6
:102CC000F894DEBF0FBECDBF98878F831A8219821A
:102CD00080E395E09C838B831E821D822D813E8143
:102CE0008B819C8148EB54EEB9010E94C9139E83ED
:102CF0008D83E09139052D813E818B819C81A901D5
:102D0000BC018E2F0E948D129A83898389819A81BA
:102D1000892B19F089819A8125C068EE73E080E0E3
:102D200090E00E94D80E209139058B819C8142E071
:102D300050E0BC01822F0E94D5129A838983898139
:102D40009A81892B19F089819A810CC08B819C8191
:102D50000E943D099C018F819885FC01318320836D
:102D600089819A8128960FB6F894DEBF0FBECDBF39
:102D7000DF91CF910895CF93DF9300D000D000D0A2
:102D8000CDB7DEB71A82198280E395E09C838B83EE
:102D90001E821D822D813E818B819C8146E456E3FB
:102DA000B9010E94C9139E838D83E09139052D815D
:102DB0003E818B819C81A901BC018E2F0E948D12C6
:102DC0009A83898389819A81892B19F089819A81D3
:102DD00008C060E375E780E090E00E94D80E89812A
:102DE0009A8126960FB6F894DEBF0FBECDBFDF9155
:102DF000CF910895CF93DF9300D000D000D0CDB70E
:102E0000DEB71A82198280E395E09C838B831E8251
:102E10001D822D813E818B819C8146EF56E3B90155
:102E20000E94C9139E838D83E09139052D813E81D7
:102E30008B819C81A901BC018E2F0E948D1260E3C1
:102E400075E780E090E00E94D80E89819A812696ED
:102E50000FB6F894DEBF0FBECDBFDF91CF910895BE
:102E60005058BB27AA270E9448170C94C2180E94EA
:102E7000B41838F00E94BB1820F039F49F3F19F4C1
:102E800026F40C94B1180EF4E095E7FB0C94AB1803
:102E9000E92F0E94D31858F3BA1762077307840703
:102EA000950720F079F4A6F50C94F5180EF4E0954A
:102EB0000B2EBA2FA02D0B01B90190010C01CA01F4
:102EC000A0011124FF27591B99F0593F50F4503E9F
:102ED00068F11A16F040A22F232F342F4427585F91
:102EE000F3CF469537952795A795F0405395C9F7A9
:102EF0007EF41F16BA0B620B730B840BBAF0915061
:102F0000A1F0FF0FBB1F661F771F881FC2F70EC0FF
:102F1000BA0F621F731F841F48F4879577956795D2
:102F2000B795F7959E3F08F0B0CF9395880F08F0BE
:102F30009927EE0F9795879508950E94871808F4B2
:102F400081E008950E94B6170C94C2180E94BB1825
:102F500058F00E94B41840F029F45F3F29F00C9417
:102F6000AB1851110C94F6180C94B1180E94D31898
:102F700068F39923B1F3552391F3951B550BBB27A8
:102F8000AA2762177307840738F09F5F5F4F220FED
:102F9000331F441FAA1FA9F335D00E2E3AF0E0E8E4
:102FA00032D091505040E695001CCAF72BD0FE2F2E
:102FB00029D0660F771F881FBB1F261737074807C2
:102FC000AB07B0E809F0BB0B802DBF01FF2793587A
:102FD0005F4F3AF09E3F510578F00C94AB180C947B
:102FE000F6185F3FE4F3983ED4F38695779567959E
:102FF000B795F7959F5FC9F7880F911D96958795AF
:1030000097F90895E1E0660F771F881FBB1F6217CD
:1030100073078407BA0720F0621B730B840BBA0B8B
:10302000EE1F88F7E09508950E941B186894B1116F
:103030000C94F61808950E94DB1888F09F5798F0BA
:10304000B92F9927B751B0F0E1F0660F771F881FAD
:10305000991F1AF0BA95C9F714C0B13091F00E94C7
:10306000F518B1E008950C94F518672F782F88278C
:10307000B85F39F0B93FCCF3869577956795B395EE
:10308000D9F73EF490958095709561957F4F8F4F5D
:103090009F4F0895E89409C097FB3EF49095809562
:1030A000709561957F4F8F4F9F4F9923A9F0F92F0E
:1030B00096E9BB279395F695879577956795B7958C
:1030C000F111F8CFFAF4BB0F11F460FF1BC06F5F72
:1030D0007F4F8F4F9F4F16C0882311F096E911C084
:1030E000772321F09EE8872F762F05C0662371F0A5
:1030F00096E8862F70E060E02AF09A95660F771FB9
:10310000881FDAF7880F9695879597F90895990F94
:103110000008550FAA0BE0E8FEEF16161706E807A1
:10312000F907C0F012161306E407F50798F0621BC2
:10313000730B840B950B39F40A2661F0232B242B97
:10314000252B21F408950A2609F4A140A6958FEFB6
:10315000811D811D089597F99F6780E870E060E008
:1031600008959FEF80EC089500240A941616170620
:1031700018060906089500240A9412161306140668
:1031800005060895092E0394000C11F4882352F0CB
:10319000BB0F40F4BF2B11F460FF04C06F5F7F4F83
:1031A0008F4F9F4F089557FD9058440F551F59F06A
:1031B0005F3F71F04795880F97FB991F61F09F3F24
:1031C00079F087950895121613061406551FF2CF4D
:1031D0004695F1DF08C0161617061806991FF1CF9D
:1031E00086957105610508940895E894BB276627C4
:1031F0007727CB0197F908950E94871808F48FEF7D
:1032000008950E9414190C94C2180E94B41838F042
:103210000E94BB1820F0952311F00C94AB180C946D
:10322000B11811240C94F6180E94D31870F3959FCE
:10323000C1F3950F50E0551F629FF001729FBB27AD
:10324000F00DB11D639FAA27F00DB11DAA1F649F49
:103250006627B00DA11D661F829F2227B00DA11DFC
:10326000621F739FB00DA11D621F839FA00D611D82
:10327000221F749F3327A00D611D231F849F600DA3
:10328000211D822F762F6A2F11249F5750409AF0CC
:10329000F1F088234AF0EE0FFF1FBB1F661F771F58
:1032A000881F91505040A9F79E3F510580F00C9423
:1032B000AB180C94F6185F3FE4F3983ED4F3869570
:1032C00077956795B795F795E7959F5FC1F7FE2BC3
:1032D000880F911D9695879597F90895A0E1B0E024
:1032E000E4E7F9E10C94F61C7C011B016A01FC0186
:1032F00017821682838181FF44C39E012F5F3F4F57
:103300003901F7019381F10193FD859193FF81913B
:103310001F01882309F431C3853239F493FD859167
:1033200093FF81911F01853239F4B70190E00E942B
:10333000311E56016501E5CF10E0512C912CFFE1C3
:10334000F915D8F08B3279F038F4803279F0833285
:10335000A1F4F92DF0612EC08D3261F0803369F453
:10336000292D21602DC0392D3260932E892D846046
:10337000982E2AC0E92DE86015C097FC2DC020EDDD
:10338000280F2A3088F496FE06C03AE0139F200DDD
:103390001124122F19C08AE0589E200D1124522E9C
:1033A000E92DE0629E2E10C08E3231F496FCE5C20B
:1033B000F92DF0649F2E08C08C3621F4292D206849
:1033C000922E02C0883641F4F10193FD859193FF5E
:1033D00081911F018111B3CF9BEB980F933020F4A3
:1033E000992D9061805E07C09BE9980F933008F09B
:1033F00066C1992D9F7E96FF16E09F73992E8536A4
:1034000019F49064992E08C0863621F4392F30685B
:10341000932E02C01111115097FE07C01C3350F4B7
:1034200044244394410E27E00BC0183038F027E0C5
:1034300017E005C027E09CE3492E02C0212F412C54
:10344000560184E0A80EB11CF60160817181828171
:103450009381042DA3010E943C1D6C01F981FC871E
:10346000F0FF02C0F3FF06C091FC06C092FE06C04A
:1034700000E205C00DE203C00BE201C000E08C8554
:103480008C7019F001115AC29BC297FE10C04C0CEF
:10349000FC85F4FF04C08A81813309F44A94141432
:1034A00074F528E0241578F588E0482E2CC096FCA9
:1034B0002AC0812F90E08C159D059CF03CEFC3162F
:1034C0003FEFD30674F0892D8068982E0AC0E2E0A1
:1034D000F0E0EC0FFD1FE10FF11D8081803319F446
:1034E00011501111F4CF97FE0EC044244394410EA5
:1034F000812F90E0C816D9062CF41C1904C044246E
:10350000439401C010E097FE06C01C141D0434F45F
:10351000C601019605C085E090E002C081E090E020
:1035200001110196112331F0212F30E02F5F3F4F21
:10353000820F931F252D30E08217930714F4581A39
:1035400001C0512C892D897049F4552039F0B701FB
:1035500080E290E00E94311E5A94F7CF002329F0B8
:10356000B701802F90E00E94311E93FC09C05520C6
:1035700039F0B70180E390E00E94311E5A94F7CFF2
:1035800097FE4CC04601D7FE02C0812C912CC6018B
:1035900088199909F301E80FF91FFE87ED87960155
:1035A00024193109388B2F87012F10E011950195CF
:1035B00011093FEF8316930629F4B7018EE290E0DC
:1035C0000E94311EC814D9044CF08F859889881543
:1035D000990524F4ED85FE85818101C080E3F1E049
:1035E0008F1A91082D853E852F5F3F4F3E872D878F
:1035F000801691062CF0B70190E00E94311ED9CFC1
:10360000C814D90441F49A81963320F4953319F4FF
:103610003C8534FF81E3B70190E04EC08A8181335D
:1036200019F09C859F7E9C87B70190E00E94311E17
:10363000111105C094FC18C085E690E017C0B701D1
:103640008EE290E00E94311E1E5F82E001E0080FD2
:10365000F301E80FF11D8081B70190E00E94311E57
:10366000802F0113F3CFE6CF85E490E0B7010E94ED
:10367000311ED7FC06C0C114D10441F4EC85E4FF2F
:1036800005C0D194C194D1088DE201C08BE2B7018D
:1036900090E00E94311E80E32AE0C216D1042CF093
:1036A0008F5FFAE0CF1AD108F7CFB70190E00E9400
:1036B000311EB701C601C0960E94311E54C1833627
:1036C00031F0833779F0833509F056C020C05601B8
:1036D00032E0A30EB11CF6018081898301E010E085
:1036E000630112C05601F2E0AF0EB11CF601C080BA
:1036F000D18096FE03C0612F70E002C06FEF7FEFB4
:10370000C6010E94261E8C01F92DFF7714C05601B8
:1037100022E0A20EB11CF601C080D18096FE03C04B
:10372000612F70E002C06FEF7FEFC6010E94141E90
:103730008C01F92DF0689F2EF3FD1AC0852D90E0C5
:1037400008171907A8F4B70180E290E00E94311E23
:103750005A94F4CFF60197FC859197FE81916F0101
:10376000B70190E00E94311E51105A940150110986
:103770000115110579F7F7C0843611F0893661F526
:10378000560197FE09C024E0A20EB11CF60160812B
:103790007181828193810AC0F2E0AF0EB11CF60103
:1037A00060817181072E000C880B990BF92DFF7633
:1037B0009F2E97FF09C090958095709561957F4FDA
:1037C0008F4F9F4FF0689F2E2AE030E0A3010E94A8
:1037D000DC1EC82EC6183FC0092D853721F40F7E88
:1037E0002AE030E01DC0097F8F3691F018F488354B
:1037F00059F0C3C0803719F0883711F0BEC000619E
:1038000004FF09C0046007C094FE08C0066006C03B
:1038100028E030E005C020E130E002C020E132E0E5
:10382000560107FF09C084E0A80EB11CF6016081B3
:1038300071818281938108C0F2E0AF0EB11CF60164
:103840006081718180E090E0A3010E94DC1EC82E9F
:10385000C6180F77902E96FE0BC0092D0E7FC1164D
:1038600050F494FE0AC092FC08C0092D0E7E05C0DB
:10387000DC2C092D03C0DC2C01C0D12E04FF0DC0AF
:10388000FE01EC0DF11D8081803311F4097E09C029
:1038900002FF06C0D394D39404C0802F867809F029
:1038A000D39403FD11C000FF06C01C2DD51480F475
:1038B000150D1D190DC0D51458F4B70180E290E024
:1038C0000E94311ED394F7CFD51410F45D1801C0B7
:1038D000512C04FF10C0B70180E390E00E94311E1C
:1038E00002FF17C001FD03C088E790E002C088E531
:1038F00090E0B7010CC0802F867859F001FF02C01C
:103900008BE201C080E207FD8DE2B70190E00E94EA
:10391000311EC11638F4B70180E390E00E94311ED9
:103920001150F7CFCA94F301EC0DF11D8081B7015E
:1039300090E00E94311EC110F5CF15C0F4E0F515DE
:1039400060F584E0581A93FE1FC0011127C02C8532
:1039500023FF2AC004EB10E0392D3071932EF801BB
:103960008491811124C0552009F4E4CCB70180E290
:1039700090E00E94311E5A94F6CFF701868197811C
:1039800026C08FEF9FEF23C0B70180E290E00E9436
:10399000311E5A945110F8CFD8CF512CB701802F37
:1039A00090E00E94311ED3CF08EB10E0D5CF9110EC
:1039B0008052B70190E00E94311E0F5F1F4FCFCFA2
:1039C00023E0251510F483E0BDCF512CC0CF6096C5
:1039D000E2E10C94121D0E942D1DA59F900DB49F35
:1039E000900DA49F800D911D112408952F923F9258
:1039F0004F925F926F927F928F929F92AF92BF92FF
:103A0000CF92DF92EF92FF920F931F93CF93DF93AA
:103A1000CDB7DEB7CA1BDB0B0FB6F894DEBF0FBE07
:103A2000CDBF09942A88398848885F846E847D8454
:103A30008C849B84AA84B984C884DF80EE80FD8056
:103A40000C811B81AA81B981CE0FD11D0FB6F894CC
:103A5000DEBF0FBECDBFED010895A29FB001B39FA1
:103A6000C001A39F700D811D1124911DB29F700D87
:103A7000811D1124911D0895283008F027E0332777
:103A8000DA01990F311D87FD91600096610571057E
:103A900039F432602E5F3D9330E32A95E1F70895C3
:103AA0009F3F30F080387105610509F03C5F3C5F55
:103AB0003D93913008F08068911DDF93CF931F9361
:103AC0000F93FF92EF92192F987F9695E92F969575
:103AD0009695E90FFF27EA5EFE4F99273327EE24DC
:103AE000FF24A701E70105900894079428F4360FF6
:103AF000E71EF81E491F511D660F771F881F991F6B
:103B00000694A1F70590079428F4E70EF81E491FC4
:103B1000561FC11D770F881F991F661F0694A1F7B6
:103B20000590079428F4F80E491F561FC71FD11D92
:103B3000880F991F661F771F0694A1F705900794B9
:103B400020F4490F561FC71FD81F990F661F771FF4
:103B5000881F0694A9F784911095177041F0D695A7
:103B6000C79557954795F794E7941A95C1F7ECEBED
:103B7000F0E06894159015913591659195910590B7
:103B80007FE27395E118F10A430B560BC90BD0097C
:103B9000C0F7E10CF11E431F561FC91FD01D7EF454
:103BA000703311F48A95E6CFE894015030F0080F95
:103BB0000AF40027021708F4202F2395022F7A33E6
:103BC00028F079E37D932A95E9F710C07D932A9533
:103BD00089F6069497956795379517951794E11888
:103BE000F10A430B560BC90BD00998F023957E912F
:103BF00073957A3308F070E37C932013B8F77E91C5
:103C000070617D9330F0839571E37D9370E32A9525
:103C1000E1F71124EF90FF900F911F91CF91DF9169
:103C2000992787FD90950895FC010590615070409B
:103C30000110D8F7809590958E0F9F1F0895DC0195
:103C400001C06D9341505040E0F70895FC01615070
:103C5000704001900110D8F7809590958E0F9F1FAE
:103C600008950F931F93CF93DF93FB01238121FDD1
:103C700003C08FEF9FEF2CC022FF16C046815781F3
:103C8000248135814217530744F4A081B1819D01FD
:103C90002F5F3F4F318320838C93268137812F5FA5
:103CA0003F4F3783268314C08B01EC01FB01008456
:103CB000F185E02D0995892BE1F6D80116968D91B5
:103CC0009C911797019617969C938E931697CE0109
:103CD000DF91CF911F910F910895A0E0B0E0E3E74D
:103CE000FEE10C94061DAE014B5F5F4FFA0161913E
:103CF0007191AF018091A4059091A5050E946E1964
:103D0000E2E00C94221D6091A4057091A5050E942B
:103D1000311E08950F931F93CF93DF93E091A40575
:103D2000F091A505238121FF1BC08C01D0E0C0E0EC
:103D3000F80181918F016091A4057091A505DB01C7
:103D40001896ED91FC911997882331F00995892BEC
:103D500079F3DFEFCFEFECCF8AE00995892B19F0EB
:103D60008FEF9FEF02C08D2F9C2FDF91CF911F917E
:103D70000F910895AEE0B0E0E0ECFEE10C94041D7C
:103D80000D891E8986E08C831A8309838FEF9FE754
:103D90009E838D83AE01475E5F4F6F89788DCE0124
:103DA00001960E946E19EF81F885E00FF11F1082D5
:103DB0002E96E4E00C94201DFA01AA27283051F138
:103DC000203181F1E8946F936E7F6E5F7F4F8F4F4C
:103DD0009F4FAF4FB1E03ED0B4E03CD0670F781FAB
:103DE000891F9A1FA11D680F791F8A1F911DA11D90
:103DF0006A0F711D811D911DA11D20D009F46894C9
:103E00003F912AE0269F11243019305D3193DEF670
:103E1000CF010895462F4770405D4193B3E00FD026
:103E2000C9F7F6CF462F4F70405D4A3318F0495D11
:103E300031FD4052419302D0A9F7EACFB4E0A695F4
:103E40009795879577956795BA95C9F70097610516
:103E5000710508959B01AC010A2E0694579547956C
:103E600037952795BA95C9F7620F731F841F951F61
:083E7000A01D0895F894FFCF96
:103E78000000000200000000470600000000496E34
:103E8800697469616C697A6174696F6E20436F6DDA
:103E9800706C657465210A00506F6C6C696E6720E0
:103EA80073656E736F727321004144433A20256431
:103EB8000A00766F6C746167653A20252E32660AAF
:103EC80000252E3266206B50610A006572726F728F
:103ED80020657865637574696E672077616B655FC7
:103EE800757028293A2025690A006572726F722058
:103EF800657865637574696E672073746F705F7039
:103F08006572696F6469635F6D6561737572656D0C
:103F1800656E7428293A2025690A006572726F72E5
:103F280020657865637574696E67207265696E6966
:103F38007428293A2025690A006572726F72206513
:103F48007865637574696E67207365745F73656EF1
:103F5800736F725F616C74697475646528293A209F
:103F680025690A006572726F7220657865637574D9
:103F7800696E67206D6561737572655F73696E67D9
:103F88006C655F73686F7428293A2025690A006593
:103F980072726F7220657865637574696E672067E1
:103FA80065745F646174615F72656164795F73747D
:103FB8006174757328293A2025690A006572726F41
:103FC8007220657865637574696E672072656164CF
:103FD8005F6D6561737572656D656E7428293A2029
:103FE80025690A00434F325B70706D5D3A20257574
:103FF8000A0054656D705B435D3A2025640A0048E9
:10400800756D69646974795B52485D3A2025752538
:10401800250A006572726F72207374617274696E1A
:1040280067206D6561737572656D656E74005350B8
:104038005333302052656164696E67733A00657264
:10404800726F722072656164696E67206D65617355
:104058007572656D656E7400252E326620706D323E
:104068002E350A00252E326620706D31302E300A2A
:1040780000252E3266206E63322E350A00252E3238
:1040880066206E6331302E300A00252E3266207489
:1040980079706963616C207061727469636C652002
:1040A80073697A650A004144432044697361626C0C
:1040B80065640053656E74200020746F20484D318C
:1040C8003000484D313020526573706F6E73653A19
:1040D80020000D0A0041540041542B414444523FF2
:1040E8000041542B4E414D455363656E655F5361E6
:1040F80066653132330041542B524F4C45300040F5
:10410800005374617274696E672073707333302062
:1041180070726F62652E2E2E005350532073656E99
:10412800736F722070726F62696E67206661696C66
:104138006564005350532073656E736F72207072FC
:104148006F62696E67207375636365737366756CF8
:10415800006572726F722072656164696E672066AD
:1041680069726D776172652076657273696F6E002A
:1041780046573A2025752E25750A006572726F72AA
:104188002072656164696E672073657269616C206D
:104198006E756D6265720053657269616C204E754B
:1041A8006D6265723A2025730A006572726F72201B
:1041B800696E6974696174696E672066616E2063EF
:1041C8006C65616E696E670046616E20636C65613F
:1041D8006E6564210045787472656D65204E65676B
:1041E80061746976652050726573737572650A002B
:1041F80045787472656D6520506F7369746976656A
:104208002050726573737572650A003078256C6C7E
:10421800780A0052656365697665643A2025630A01
:10422800004275666665722066756C6C2C20636C3E
:10423800656172696E672E2E2E004275666665721C
:1042480020636F6E74656E74206265666F72652098
:10425800636C6561723A200031297265616420627D
:10426800797465206572726F7220726574203D20C2
:10427800256400322972656164206279746520655D
:1042880072726F7220726574203D20256400537429
:0E4298006174757320213D20307830380000AD
:00000001FF
